:020000040800F2
:10000000700500209D01000853180008C515000860
:1000100051180008A9020008B51E000800000000E1
:100020000000000000000000000000005718000859
:10003000AB0200080000000055180008591800081D
:10004000B7010008B7010008B7010008B7010008B0
:10005000B7010008B7010008B7010008B7010008A0
:10006000B7010008B7010008B7010008B701000890
:10007000B7010008B7010008B7010008B701000880
:10008000B7010008B7010008B7010008B701000870
:10009000B7010008B7010008B7010008B701000860
:1000A000B7010008B7010008B7010008B701000850
:1000B000B7010008B7010008B7010008B701000840
:1000C000B7010008B7010008B7010008B701000830
:1000D000B70100089D1E0008A91E0008B70100080E
:1000E000B7010008B7010008B7010008B701000810
:1000F000B7010008B7010008B7010008B701000800
:10010000B7010008B7010008B7010008B7010008EF
:10011000B7010008B7010008B7010008B7010008DF
:10012000B7010008B7010008B7010008B7010008CF
:10013000B7010008B7010008B7010008B7010008BF
:10014000B7010008B7010008B7010008B7010008AF
:10015000B7010008B7010008B7010008B70100089F
:10016000B7010008B7010008B7010008B70100088F
:10017000B7010008B7010008B7010008000000003F
:10018000B7010008B7010008DFF80CD000F07AF8DA
:1001900000480047D51E000870050020064880472B
:1001A00006480047FEE7FEE7FEE7FEE7FEE7FEE75C
:1001B000FEE7FEE7FEE7FEE7F11800088901000808
:1001C0002DE9F05F0546002092469B46884606468C
:1001D000814640241BE0284641464746224600F01F
:1001E00041F853465A46C01A914110D31146184659
:1001F000224600F028F82D1A67EB01084F462246E8
:100200000120002100F01FF817EB00094E41201ECD
:10021000A4F10104DFDC484631462A464346BDE8E6
:10022000F09FD2B201E000F8012B491EFBD27047CB
:100230000022F6E710B513460A4604461946FFF7B2
:10024000F0FF204610BD202A04DB203A00FA02F11C
:10025000002070479140C2F1200320FA03F31943B4
:1002600090407047202A04DB203A21FA02F0002156
:10027000704721FA02F3D040C2F1200291400843B6
:1002800019467047064C074D06E0E06840F0010350
:1002900094E8070098471034AC42F6D3FFF778FF94
:1002A0005422000874220008FEE7704772B6FEE789
:1002B0002DE9F0410446A66D00F070F9054694F86A
:1002C00035000027022806D08020606584F834704D
:1002D0000120BDE8F0812068016821F0160101606D
:1002E0002068416921F080014161206C08B9A06C4F
:1002F00020B12068016821F00801016020680168D0
:1003000021F0010101602068006810F0010F12D097
:1003100000F044F9401B052808D92020606584F8C6
:100320003470032084F83500BDE8F081206800684F
:1003300010F0010FECD194F85C003F2101FA00F0BD
:10034000B06084F83470012084F835000020BDE8E6
:10035000F08190F83510022903D0802141650120F9
:100360007047052180F835100068016821F001010F
:1003700001600020704700002DE9F84F0022DFF8EF
:10038000F891DFF8F8A1DFF8F8B14FF0010E03277C
:100390004FF00F080EFA02FC0B6803EA0C036345EA
:1003A0007ED10C7904F00304012C01D0022C14D16D
:1003B0008568540007FA04F6B543CE6806FA04F4DB
:1003C0002C438460446824EA0C0C0C79C4F30014B8
:1003D000944044EA0C0CC0F804C0D1F804C037EAD9
:1003E0000C0C0CD0C4684FEA420C07FA0CF5AC4375
:1003F0008D6805FA0CFC4CEA040CC0F80CC091F8AE
:1004000004C00CF0030CBCF1020F12D14FEAD20C65
:1004100000EB8C04256A4FEA427C4FEADC6C08FA58
:100420000CF6B5430E6906FA0CFC4CEA050CC4F850
:1004300020C004684FEA420C07FA0CF5AC430D7972
:1004400005F0030505FA0CFC4CEA040CC0F800C0EA
:10045000D1F804C01CF0805F6FD0D9F800C04CF414
:10046000804CC9F800C0D9F800C00CF4804CCDF81D
:1004700000C022F0030C0CF1804505F59835D5F845
:1004800008C89407240F08FA04F62CEA0606A0F11F
:10049000804CBCF5003C56D0BCF5806C56D000E0DA
:1004A0004BE0BCF5806C54D0BCF5806C54D0BCF5EE
:1004B000806C54D0BCF5806C54D0BCF5806C54D0AA
:1004C000BCF5806C54D04FF0080C0CFA04FC4CEADC
:1004D000060CC5F808C8DAF800C02CEA030C4C6812
:1004E00014F4803F01D04CEA030CCAF800C0254C3C
:1004F000D4F800C02CEA030C4D6815F4003F01D07D
:100500004CEA030CC4F800C0DBF800C02CEA030C72
:100510004C6814F4801F01D04CEA030CCBF800C0E7
:10052000194CD4F800C02CEA030C4D6815F4001FD8
:1005300001D04CEA030CC4F800C0521C102AFFF48E
:1005400029AFBDE8F88F4FF0000CBEE74FF0010C6B
:10055000BBE74FF0020CB8E74FF0030CB5E74FF0E4
:10056000040CB2E74FF0050CAFE74FF0060CACE718
:100570004FF0070CA9E7000044380240003C01405E
:10058000083C0140043C01400C3C0140002A01D0E1
:1005900081617047090481617047000001488068EB
:1005A0007047000000000020024881680278114472
:1005B000816070470000002010B50B48016841F4CD
:1005C00000710160016841F480610160016841F4DB
:1005D00080710160032000F085F8002000F006F82B
:1005E00000F026F8002010BD003C024070B5044623
:1005F0000D4D4FF47A712878B1FBF0F00B49096882
:10060000B1FBF0F000F0DCFB08B1012070BD102C54
:1006100007D200222146501E00F030F86C60002006
:1006200070BD012070BD0000000000200C00002003
:100630000A4808B5016841F480410160006800F48F
:10064000804000900548001F016841F08051016022
:10065000006800F08050009008BD0000443802405F
:1006600000280ADB00F01F01012202FA01F1400913
:10067000800000F1E020C0F80011704710B4184B62
:100680001B68C3F30223C3F1070CBCF1040F01D9AB
:100690004FF0040C1C1D072C01D2002300E0DB1ED0
:1006A000012404FA0CFCACF1010C0CEA01019940A4
:1006B00004FA03F35B1E1A401143002806DB00F125
:1006C000E020090180F8001410BC704700F00F0012
:1006D00000F1E020090180F8141D10BC70470000F3
:1006E0000CED00E000F00700064A11684FF6FF032A
:1006F000194041EA002040F0FD7040F08060106039
:10070000704700000CED00E02DE9F04704460D466F
:10071000002C13D0DFF85491D9F80000EFB200F0AC
:100720000700A8420DD289F80070D9F8000000F047
:100730000700A84205D00120BDE8F0870120BDE8F0
:10074000F08720684A4E10F0020F14D010F0040F0A
:1007500003D0306840F4E0503060207810F0080F8B
:1007600003D0306840F4604030603068A16820F009
:10077000F00008433060207810F0010F3ED0606830
:100780003C49012808D002280DD003280BD0096865
:1007900011F0020F28D00AE0096811F4003F06D1D9
:1007A0000120BDE8F087096811F0007F19D0316899
:1007B00021F0030108433060FFF7F0FE8046306807
:1007C000616800F00C00B0EB810F17D041F2883A5D
:1007D000FFF7E4FEA0EB0800504508D90320BDE870
:1007E000F0870120BDE8F0870120BDE8F087306880
:1007F000616800F00C00B0EB810FE9D1D9F800007E
:1008000000F00700A8420AD989F80070D9F8000062
:1008100000F00700A84202D00120BDE8F087207850
:1008200010F0040F05D03068E16820F4E050084370
:100830003060207810F0080F06D03068216920F46D
:10084000604040EAC100306000F042F831680A4A76
:10085000C1F30311515CC8400849086008480068AA
:10086000FFF7C4FE0020BDE8F0870000003C024016
:1008700008380240003802403C2200080C000020EA
:100880000400002001480068704700000C000020B0
:1008900000B5FFF7F7FF04490968044AC1F3822154
:1008A000515CC84000BD0000083802404C220008DE
:1008B00000B5FFF7E7FF04490968044AC1F3423174
:1008C000515CC84000BD0000083802404C220008BE
:1008D00010B51748006810F00C01164816D04310E8
:1008E000042912D0082911D1134C216801F03F02CC
:1008F000216811F4800F0AD02068C0F38810A0FB93
:1009000003010023FFF75CFC09E0184610BD2168D5
:100910000023C1F38811A1FB0001FFF751FC2168FE
:10092000C1F30141491C4900B0FBF1F010BD0000CA
:10093000083802400024F400043802402DE9F84F42
:100940000446002C12D02078FB4E10F0010FA6F1C7
:10095000040563D0301D016801F00C0104290CD09E
:10096000006800F00C00082803D010E00120BDE86A
:10097000F88F306810F4800F09D0286810F4003F19
:100980004CD06068002849D10120BDE8F88F60682C
:10099000B0F5803F14D0B0F5A02F16D0286820F411
:1009A00080302860286820F480202860606810B3B8
:1009B000FFF7F4FD0746286810F4003F0ED02DE045
:1009C000286840F480302860F0E7286840F48020F0
:1009D0002860286840F480302860E7E7FFF7DEFDF4
:1009E000C01B642802D90320BDE8F88F286810F4E2
:1009F000003FF3D012E0FFF7D1FD0746286810F45E
:100A0000003F0BD0FFF7CAFDC01B642802D90320AA
:100A1000BDE8F88F286810F4003FF3D12078C74F65
:100A200010F0020F4FF0000957D0C548016811F0CF
:100A30000C0F14D0006800F00C00082803D13068B7
:100A400010F4800F0BD0E06880B301203860FFF70E
:100A5000A5FD8046286810F0020F12D01EE028681D
:100A600010F0020F05D0E068012802D00120BDE897
:100A7000F88F2868216920F0F80040EAC10028605A
:100A80002BE0FFF78BFDA0EB0800022802D9032022
:100A9000BDE8F88F286810F0020FF2D028682169AD
:100AA00020F0F80040EAC100286016E0FFE7C7F830
:100AB0000090FFF773FD8046286810F0020F0CD0FD
:100AC000FFF76CFDA0EB0800022802D90320BDE867
:100AD000F88F286810F0020FF2D1207810F0080F7C
:100AE00035D09848DFF860A26169C1B10121016089
:100AF000FFF754FD8046DAF8000010F0020F26D10F
:100B0000FFF74CFDA0EB0800022802D90320BDE846
:100B1000F88FDAF8000010F0020FF1D017E0C0F8FB
:100B20000090FFF73BFD8046DAF8000010F0020F5E
:100B30000DD0FFF733FDA0EB0800022802D90320F7
:100B4000BDE8F88FDAF8000010F0020FF1D120783C
:100B500010F0040F71D04FF000087C48006810F0CE
:100B6000805F0AD17948016841F0805101600068D6
:100B700000F0805000904FF00108DFF8D4B1DBF8AE
:100B8000000010F4807F1BD1DBF8000040F480707F
:100B9000CBF80000FFF702FD8246DBF8000010F4FE
:100BA000807F0DD1FFF7FAFCA0EB0A00022802D9E2
:100BB0000320BDE8F88FDBF8000010F4807FF1D04F
:100BC000A068DFF890B1012818D005281DD0DBF807
:100BD000000020F00100CBF80000DBF8000020F05E
:100BE0000400CBF80000A06840B3FFF7D7FC8246B2
:100BF000DBF8000010F0020F14D03EE0DBF800003C
:100C000040F00100CBF80000EDE7DBF8000040F019
:100C10000400CBF80000DBF8000040F00100CBF846
:100C20000000E0E7FFF7BAFCA0EB0A0141F28830D0
:100C3000814204D90320BDE8F88F26E005E0DBF807
:100C4000000010F0020FEDD017E0FFF7A7FC82467E
:100C5000DBF8000010F0020F0FD0FFF79FFCA0EBB5
:100C60000A0141F28830814202D90320BDE8F88FA1
:100C7000DBF8000010F0020FEFD1B8F1010F04D142
:100C80003248016821F080510160A069F0B32C491D
:100C900009684FF0FF3801F00C01082966D00228DE
:100CA00010D0C7F86090FFF779FC0446286810F070
:100CB000007F2BD0FFF772FC001B022851D90320C4
:100CC000BDE8F88FC7F86090FFF768FC8146286898
:100CD00010F0007F0CD0FFF761FCA0EB09000228A8
:100CE00002D90320BDE8F88F286810F0007FF2D108
:100CF000216AE069A26A0843616A08EB520289012D
:100D000041EA0241084394F82C1000E055E040EA23
:100D10000160306001203866FFF740FC0446286817
:100D200010F0007F49D1FFF739FC001B022813D9CE
:100D30000320BDE8F88F000004380240000047425D
:100D400008380240800E4742743802404038024062
:100D50000070004070380240286810F0007FE2D038
:100D60002BE0286810F0007FA4D126E0012822D0D3
:100D70003068E26900F4800191421AD1226A00F0E1
:100D80003F01914215D147F6C071626A0140B1EB53
:100D9000821F0ED1A26A00F4403108EB5202B1EB7F
:100DA000024F06D194F82C1000F07060B0EB016F88
:100DB00003D00120BDE70120BBE70020B9E7000018
:100DC000401EB0F1807F01D3012070474FF0E02139
:100DD0004861044AF02010700020886107200861F3
:100DE0000020704723ED00E030B490F83C20012A49
:100DF00038D0012480F83C40022280F83D2002686F
:100E0000D2F804C093682CF0700C0D6845EA0C0C05
:100E1000C2F804C00268A2F1804CBCF5803C14D03A
:100E2000B2F1804F11D01CF57C4C0ED0BCF5806C1B
:100E30000BD0BCF5806C08D0BCF5784C05D0BCF567
:100E4000705C02D01CF5943C04D123F08003496807
:100E50001943916080F83D40002180F83C1030BC7F
:100E60000020704730BC02207047000070B586B08B
:100E7000044614216846FFF7DBF92568002217496C
:100E8000022301241648B5F1804F15D0154EB54206
:100E900010D10D6845F002050D6009680094CDE998
:100EA000013201F00201CDE9043103924FEA0D0154
:100EB000FFF762FA06B070BD0D6845F002050D60DF
:100EC000096801F0020105914FF480610091CDE9BC
:100ED0000132CDE903246946EAE7000030380240D8
:100EE000000402400004004070B504460D4694F82A
:100EF0003C0001280AD0012084F83C0042B1042AB9
:100F00001AD0082A2DD00C2A53D13EE0022070BD01
:100F10002946206800F060FD2068816941F00801E1
:100F200081612068816921F0040181612068816903
:100F30002A69114381613CE02946206800F084FD64
:100F40002068816941F4006181612068816921F430
:100F500080618161206881692A6941EA0221816199
:100F600027E02946206800F0ABFD2068C16941F008
:100F70000801C1612068C16921F00401C1612068D4
:100F8000C1692A691143C16113E02946206800F054
:100F9000D3FD2068C16941F40061C1612068C16965
:100FA00021F48061C1612068C1692A6941EA022196
:100FB000C161002084F83C0070BD10B50446002CCF
:100FC00003D094F83D0010B107E0012010BD0020CF
:100FD00084F83C00204600F01FF8022084F83D0011
:100FE000211D206800F08CFC012084F8460084F864
:100FF0003E0084F83F0084F8400084F8410084F803
:10100000420084F8430084F8440084F8450084F8E2
:101010003D00002010BD000008B501680B48B1F18B
:10102000804F0BD00A4A914207D1016841F002017A
:101030000160006800F00200009008BD016841F006
:1010400001010160006800F00100F5E7403802404E
:101050000004004010B50446002909D004290AD034
:1010600008290BD094F8410001280AD0012010BDB6
:1010700094F83E00F8E794F83F00F5E794F8400054
:10108000F2E7022099B304293FD0082940D084F820
:1010900041000122206800F08FFC1F4A20681F4990
:1010A000904201D0884203D1436C43F4004343642F
:1010B000206890421CD0B0F1804F19D0A0F180423E
:1010C000B2F5806214D0B2F5806211D0B2F58062C0
:1010D0000ED088420CD0B2F59A3109D011F5943176
:1010E00006D0016841F001010160002010BD09E057
:1010F000816801F007010629F7D0016841F001017C
:101100000160F2E784F83E00C3E784F83F00C0E7DF
:1011100084F84000BDE700000000014000040140E9
:1011200030B504460D4600222946206800F044FCF4
:10113000206841F211118A10A0F18043B3F5803389
:1011400002D0B3F5806309D1036A0B4206D1036A6A
:10115000134203D1436C23F4004343642068036AC1
:101160000B4206D1016A114203D1016821F001014D
:10117000016001203DB1042D08D0082D09D084F86C
:101180004100002030BD84F83E00FAE784F83F00BB
:10119000F7E784F84000F4E770477047F8B5044675
:1011A00022681068D168536900F00F0CBCF1000F81
:1011B0000AD110F0200F07D011F0200F04D02046E4
:1011C000BDE8F84000F00FBD0025BCF1000F6DD068
:1011D00003F0010C01F490765CEA060666D010F08C
:1011E000010F06D011F4807F03D0226C42F001027F
:1011F000226410F0040F06D013F0010F03D0226C0C
:1012000042F00202226410F0020F06D013F0010F28
:1012100003D0226C42F00402226410F0080F08D0C0
:1012200001F0200252EA0C0203D0226C42F00802C4
:101230002264226C002A2FD010F0200F05D011F06C
:10124000200F02D0204600F0CEFC20684069C0F399
:101250008010216C01F00801084322D0204600F0E4
:101260009DFC2068416911F0400F16D0416921F0C2
:1012700040014161A06B60B147490165A06BFFF778
:1012800068F8002808D0A06B016D01B0BDE8F040FF
:1012900008472046FFF781FFF8BD2046FFF77DFF96
:1012A000F8BD2046FFF779FF2564F8BD236B012BBD
:1012B0005CD110F0100F59D011F0100F56D01068FB
:1012C0005068009050694FF0200310F0400F2FD06D
:1012D000A16B0868406880B20028E6D0B4F82CC042
:1012E0008445E2D9E085C869B0F5807F18D0D06820
:1012F00020F48070D0602068416921F001014161D3
:101300002068416921F04001416184F83E30256345
:101310002068C16821F01001C160A06BFEF7C8FF12
:10132000A08DE18D401A81B22046FFF735FFF8BD50
:10133000A08DE18D401A81B2E08D0028F7D0002900
:10134000F5D0D06820F49070D0602068426922F017
:101350000102426184F83E3025632068C26822F0B1
:101360001002C2602046FFF717FFF8BD10F0800F93
:1013700007D011F0800F04D02046BDE8F84000F0FF
:1013800022BD10F0400FF0D011F0400FEDD02046FC
:10139000BDE8F84000F01ABC8D1B000870B504468B
:1013A000002C04D094F83D00002510B106E0012087
:1013B00070BD84F83C50204600F022F8242084F8C8
:1013C0003D002068C16821F40051C160204600F052
:1013D00063FC2068016921F4904101612068416942
:1013E00021F02A0141612068C16841F40051C160C7
:1013F0002564202084F83D0084F83E00002070BD64
:10140000F0B587B0044614216846FEF711FF2A4F55
:101410002368002229490224032507262848BB42C5
:1014200021D1264B14331F6847F010071F601B683B
:1014300003F0100305930B6843F001030B60096888
:1014400002AB01F0010105916902CDE9001483E8C6
:1014500064006946FEF790FF002211462520FFF741
:101460000DF9252023E0174FBB4222D1134B103337
:101470001F6847F400371F601B6803F400330593AF
:101480000B6843F001030B60096802AB01F0010136
:1014900005910C21CDE9001483E864006946FEF74C
:1014A0006BFF002201212620FFF7E8F82620FFF736
:1014B000D7F807B0F0BD00000010014030380240FE
:1014C000000002400044004090F83E30202B01D044
:1014D0000220704759B152B190F83C30012B08D02E
:1014E000012380F83C300023036300F051BC01204D
:1014F00070470220704770472DE9F84304460E46B6
:1015000015461F4694F83D00202802D00220BDE871
:10151000F883C6B1BDB194F83C00012816D0012073
:1015200084F83C004FF00009C4F84090212084F872
:101530003D00FFF733F88046A584E584A068B0F548
:10154000805F06D007E00120BDE8F8830220BDE8F7
:10155000F883206980B13546002684F83C90E08C01
:10156000B8B14346002280212046009700F05AFC83
:1015700020B10320BDE8F8830025EEE7A5B121687E
:10158000287848606D1CE08C401EE084E08C0028C8
:10159000E7D14346002240212046009700F042FC5C
:1015A00048B10320BDE8F88330882168C0F3080003
:1015B0004860B61CE7E7202084F83D000020BDE825
:1015C000F8837047FEE700002DE9F04786B014214C
:1015D0006846FEF72DFE45480025016841F00401EC
:1015E0000160016801F004010591016841F080018A
:1015F0000160016801F080010591016841F001017D
:101600000160016801F001010591016841F00201EA
:101610000160016801F002010591016841F00801D3
:101620000160016801F008010591016841F0400185
:10163000016000682E4F00F040000590012220213B
:101640003846FEF7A3FFDFF8AC8001224FF47F415C
:101650004046FEF79BFFDFF8A09001224FF4FE7199
:101660004846FEF793FFDFF894A04FF47C76012202
:1016700031465046FEF78AFF202001248DE83100D4
:10168000694638460395FEF777FE4FF20F70022544
:101690008DE83100694640460395FEF76DFEE00295
:1016A000CDE9000469464046CDE90245FEF764FEF7
:1016B0007C208DE83100694648460395FEF75CFEC4
:1016C0004FF4C070CDE9000469464846CDE90245B3
:1016D000FEF752FE0096CDE9014569465046039556
:1016E000FEF74AFE06B0BDE8F08700003038024041
:1016F00000000240000C02400018024000040240BA
:1017000030B589B0002407941C2168460894FEF780
:101710008FFD16484FF0804140F2F31502C05F2163
:1017200032C040F8104984611048FFF746FC08B108
:10173000FEF7BCFD079407A90C480894FFF754FB7B
:1017400008B1FEF7B3FD60200090CDE901540822F6
:10175000694606480494FFF7C7FB08B1FEF7A6FDEB
:101760000248FFF783FB09B030BD0000580000209D
:1017700010B58AB0002407941C2168460894FEF72F
:1017800057FD1648144901603B21C0E90114592155
:10179000C0E903148461FFF710FC08B1FEF786FD71
:1017A000079407A90D480894FFF71EFB08B1FEF740
:1017B0007DFD6020CDE900040294082269460748B7
:1017C0000494FFF791FB08B1FEF770FD0348FFF7A3
:1017D0004DFB0AB010BD000000040040A000002036
:1017E0000C4810B50A4901604FF4E1314160002115
:1017F00081600C22C160C0E904128161C161FFF700
:10180000CDFD002803D0BDE81040FEF74FBD10BD50
:1018100000100140E80000200C4810B50A490160A2
:101820004FF4E1314160002181600C22C160C0E9C8
:1018300004128161C161FFF7B1FD002803D0BDE84A
:101840001040FEF733BD10BD004400402C010020C5
:10185000FEE7FEE770477047FEF7A6BE30B593B0CF
:1018600030216846FEF7E4FC14210CA8FEF7E0FCEA
:101870001D480025016841F080510160006800F0BA
:10188000805011901948016841F48041016000685E
:10189000022400F480401190012000900004019087
:1018A0008001CDE9064008200890C020CDE9090458
:1018B00004200B906846FFF741F808B172B6FEE7C6
:1018C0000CA90F2081E831004FF4A0500F904FF485
:1018D0008050109003210CA8FEF716FF002801D0BD
:1018E00072B6FEE713B030BD4038024000700040D1
:1018F0000248016841F470010160704788ED00E022
:10190000F0B40268274B284C284D294EDFF8A4C0BC
:1019100098420AD0B0F1804F07D0A04205D0A8422B
:1019200003D0B04201D0604503D122F070024F686D
:101930003A4398421ED0B0F1804F1BD0A04219D03C
:10194000A84217D0B04215D0604513D0A0F1804412
:10195000B4F5A0340ED0B4F580640BD0B4F5806437
:1019600008D014F5983405D0B4F5806402D0B4F5ED
:10197000806403D122F44072CC6822434C6922F087
:101980008002224302608A68C2620A6882629842C8
:1019900001D0604501D10969016301214161F0BCB9
:1019A00070470000000001400004004000080040B3
:1019B000000C00400004014001F01F0101238B4096
:1019C000D0F820C02CEA03030362036A02FA01F193
:1019D000194301627047000070B4026A22F00102EC
:1019E0000262036A4268D0F818C02CF0700C2CF028
:1019F000030C0C6844EA0C0C23F002038C682343AC
:101A00000F4C104DA04201D0A84205D123F008038D
:101A1000CE68334323F00403A04201D0A84207D18B
:101A200022F4807222F400724C6922438C692243B2
:101A30004260C0F818C049684163036270BC7047D7
:101A4000000001400004014070B4026A22F010025C
:101A50000262036A4268D0F818C02CF4E04C2CF4FF
:101A6000407C0C684CEA042C23F020038C6843EA89
:101A70000413114C114DA04201D0A84206D123F00D
:101A80008003CE6843EA061323F04003A04201D04E
:101A9000A84209D122F4806222F400624C6942EA31
:101AA00084028C6942EA84024260C0F818C0496826
:101AB0008163036270BC7047000001400004014074
:101AC00070B4026A22F480720262036A4268D0F83B
:101AD0001CC02CF0700C2CF0030C0C6844EA0C0CAD
:101AE00023F400738C6843EA0423114C114DA04287
:101AF00001D0A84206D123F40063CE6843EA06234E
:101B000023F48063A04201D0A84209D122F480527C
:101B100022F400524C6942EA04128C6942EA04122F
:101B20004260C0F81CC04968C163036270BC704762
:101B3000000001400004014010B4026A22F4805207
:101B40000262D0F820C04268C36923F4E04323F462
:101B500040730C6843EA04232CF4005C8C684CEA64
:101B6000043CA0F18044B4F5803402D0B4F5806424
:101B700004D122F480424C6942EA84124260C3617B
:101B800049680164C0F820C010BC704710B5806B74
:101B90000021C185C184FFF700FB10BD0168CA6840
:101BA00022F49072CA6001684A6922F001024A6117
:101BB000016B012904D10168CA6822F01002CA60D1
:101BC000202180F83E1000210163704710B50168A4
:101BD000CA6822F04002CA60202180F83D10FFF759
:101BE000F0FC002010BD10B5044694F83E002228F9
:101BF00001D0022010BDA168B1F5805F01D120693C
:101C000028B1A06AB1F5805F1DD051B10BE0A06A88
:101C100021684968C1F308010180A06A801CA062A4
:101C200009E0216979B12168496801F07F010170FB
:101C3000A06A401CA062E08D401E0004000CE085FC
:101C400005D0002010BD216849680170F0E72068C8
:101C5000C16821F02001C1602068C16821F4807151
:101C6000C1602068416921F001014161202084F8B0
:101C70003E00206B012805D02046FFF73CFC0020E9
:101C8000206310BD2068C16821F01001C160A18DE2
:101C90002046FFF781FAF2E72DE9F041044620687B
:101CA0000169E26821F44051114301612169A06892
:101CB000E26908436169114301432068C26822F464
:101CC000037222F414421143C16020684169A26981
:101CD00021F44071114341612068A0F18041B1F5C8
:101CE00088312CD0B1F5806129D0FEF7D1FD844632
:101CF000E16900201927254D3226B1F5004F22D089
:101D00006068830F8200ACFB0701FEF759FA0146B9
:101D1000A5FB002040097A42424301EB820106EB19
:101D20000111A5FB0121490901F0F00202EB0010AD
:101D300001F00F01084421688860BDE8F081FEF7DA
:101D4000B7FD8446D4E761684A1840EB0003ACFB5A
:101D50000701FEF735FA0346A5FB001041091846B6
:101D60000A016FF01803594300EB810006EBC00035
:101D7000A5FB0010400900F0F80102EB410100F062
:101D80000700084421688860BDE8F0811F85EB5199
:101D900081628285C28500210164222280F83E2072
:101DA00080F83C100168CA6842F48072CA60016819
:101DB0004A6942F001024A610068C16841F02001AD
:101DC000C1600020704790F83D10212901D0022009
:101DD00070478168B1F5805F01D1016961B1016A25
:101DE0004A1C0262026809785160C18C491E0904CC
:101DF000090CC1840AD013E0016A02680988C1F3A2
:101E000008015160016A891C0162EEE70168CA6835
:101E100022F08002CA600068C16841F04001C160E0
:101E2000002070472DE9F0410446069D884617467C
:101E30001E462068006838EA000020D00020B84222
:101E400027D1B5F1FF3F1CD025B1FEF7A7FB801BC2
:101E5000A84216D92068C16821F4D071C1602068F9
:101E6000416921F001014161202084F83D0084F89E
:101E70003E00002084F83C000320BDE8F0810120F2
:101E8000DDE72068006838EA000005D00020B8428D
:101E9000D7D00020BDE8F0810120F8E70148FFF726
:101EA0007DB90000E80000200148FFF777B9000085
:101EB0002C010020FEE702E008C8121F08C1002A1A
:101EC000FAD170477047002001E001C1121F002ABB
:101ED000FBD17047FEF770FBFFF7C0FCFFF774FB08
:101EE000FFF77EFCFFF798FCFFF742FCFFF708FCCA
:101EF0000821CA48FFF7AEF80821C948FFF7AAF839
:101F0000DFF82093C64FC84DDFF820A3C84E4FF628
:101F1000FF7B09F123042322C249C648FFF7D4FA04
:101F200099F80110217099F80310617099F8051063
:101F3000A17099F80710E17099F80910217199F8CA
:101F40000B10617199F80D10A171484699F80F10A6
:101F5000E171417C217299F81300B24960725B46CD
:101F600002222331B448FFF7C7FA217819B10020C3
:101F7000072916D000E0012000210843617891B1C3
:101F800000221043072910D000210843E17871B1E5
:101F90000022104307290CD0002108430BD0012256
:101FA0000AE00121E9E70122EBE70121EDE7012247
:101FB000EFE70121F1E7002204215046FEF7E6FA9F
:101FC0002078052805D900224FF480515046FEF7AD
:101FD000DDFA2078C01E032809D2012211035046E1
:101FE000FEF7D4FA012251035046FEF7CFFA2078CB
:101FF000032805D200224FF400515046FEF7C6FADE
:102000006078052805D900224FF480415046FEF73C
:10201000BDFA6078C01E03280AD2012291035046FF
:10202000FEF7B4FA00224FF400415046FEF7AEFA34
:102030006078032804D20122D1035046FEF7A6FAA5
:10204000E078052804D9002280212846FEF79EFA70
:10205000E078C01E032809D2012280212846FEF71D
:1020600095FA012211022846FEF790FAE07803283B
:1020700005D200224FF480712846FEF787FA2079B6
:10208000062808D14FF05A0808216548FEF7E2FFFC
:102090003968C1F83C802079001F012808D84FF02A
:1020A000440808215E48FEF7D5FF3968C1F83C8036
:1020B000207902280AD9032808D84FF032080821CD
:1020C0005748FEF7C7FF3968C1F83C80A07848B987
:1020D000002210212846FEF759FA01222021284625
:1020E000FEF754FAA078401E062809D200221021DB
:1020F0002846FEF74BFA002220212846FEF746FA32
:10210000A078062809D9012210212846FEF73EFAB8
:10211000002220212846FEF739FA6079022808D2E9
:10212000012291025046FEF731FA08213B48FEF7A2
:1021300091FF6079801E042803D208213748FEF7FA
:10214000EFFF6079052809D908213448FEF782FF9E
:1021500000224FF480615046FEF718FA20790728D4
:1021600003D108212E48FEF7DBFFA07920B9002219
:1021700010213046FEF70AFAA079072804D101227F
:1021800010213046FEF702FAE07920B90022202122
:102190003046FEF7FBF9E079072804D1012220211F
:1021A0003046FEF7F3F9207A04280AD10022802174
:1021B0003046FEF7EBF900224FF480713046FEF70F
:1021C000E5F9207A072809D1002280213046FEF760
:1021D000DDF9012211023046FEF7D8F9207A50B914
:1021E000012280213046FEF7D1F900224FF48071A0
:1021F0003046FEF7CBF9607A28B900224FF400711F
:102200003046FEF7C3F9607A07287FF484AE0122D6
:1022100051023046FEF7BAF97DE600005800002072
:10222000A00000201000002000180240000C024016
:10223000000402402C010020E80000200000000003
:102240000000000001020304060708090000000066
:1022500001020304742200080000002010000000A6
:10226000B61E00088422000810000020600500004F
:10227000C61E000801000000100000000000000061
:042280000024F40042
:040000050800018965
:00000001FF
