:020000040800F2
:10000000B00900209D010008EF1F0008E51C000852
:10001000ED1F000855060008252500080000000017
:100020000000000000000000000000000B2100089C
:100030002108000800000000092100080D21000827
:10004000B7010008B7010008B7010008B7010008B0
:10005000B7010008B7010008B7010008B7010008A0
:10006000B7010008B7010008B7010008B701000890
:10007000B7010008B7010008B7010008B701000880
:10008000B7010008B7010008B7010008B701000870
:1000900059060008B7010008B7010008B7010008B9
:1000A0000D220008B7010008B7010008B7010008D9
:1000B0002922000869220008A5220008B7010008CB
:1000C000B7010008B7010008B7010008B701000830
:1000D000B7010008F5240008012500080D250008D7
:1000E000B7010008B7010008B7010008B701000810
:1000F000B7010008B7010008B7010008B701000800
:10010000B7010008B7010008B7010008B7010008EF
:10011000B7010008B7010008B7010008B7010008DF
:10012000B7010008B7010008B7010008B7010008CF
:10013000B7010008B7010008B7010008B7010008BF
:10014000B7010008B7010008B7010008B7010008AF
:10015000B7010008B7010008B70100081925000819
:10016000B7010008B7010008B7010008B70100088F
:10017000B7010008B7010008B7010008000000003F
:10018000B7010008B7010008DFF80CD000F050FA02
:1001900000480047BD270008B009002006488047F6
:1001A00006480047FEE7FEE7FEE7FEE7FEE7FEE75C
:1001B000FEE7FEE7FEE7FEE7B92100088901000837
:1001C0002DE9F05F0546002092469B46884606468C
:1001D000814640241BE0284641464746224600F01F
:1001E000A8F953465A46C01A914110D311461846F1
:1001F000224600F08FF92D1A67EB01084F46224680
:100200000120002100F086F917EB00094E41201E65
:10021000A4F10104DFDC484631462A464346BDE8E6
:10022000F09F2DE9FE4F804681EA0300C00F0C4687
:10023000009021F0004123F00045B8EB0200A941F5
:1002400005D24046214690461C460B46024623F006
:100250000040104347D0270DC7F30A00C3F30A51EB
:100260000290401A019040286BDAC3F3130040F467
:10027000801B0098924620B10023D2EB030A63EB67
:100280000B0B01985946C0F14002504600F042F96C
:1002900006460D4650465946019A00F05AF910EBB1
:1002A00008006141002487EA115284EAE7731A4387
:1002B00040D0009A62B3019A012A4FEA075215DC36
:1002C000001B61EB02014FF0004202EA0752CDE948
:1002D0000042001C41F5801132462B4600F05AF9CD
:1002E00003B0BDE8F08F40462146F9E7001B61EB03
:1002F0000201001C41F5801300185B412018A2F593
:10030000001747EB030140EAD570B6196D4111E0C3
:100310006D084FEA360645EAC0754FEA0752001BE2
:1003200061EB0201001C41F5801149084FEA3000E1
:100330000019514132462B4603B0BDE8F04F00F0A2
:100340001AB90098012240000023D0EB020263EBAF
:10035000E073009821464FEAE074B8EB000061EBCF
:100360000401E9E783F000435BE781F0004158E7CF
:100370002DE9FE4F81EA030404F0004421F000411E
:1003800000944FF0000B23F0004350EA01045ED0CC
:1003900052EA03045BD0C3F30A54C1F30A552C4458
:1003A000A4F2F3340194A0FB0254C1F3130141F40D
:1003B0008011C3F3130343F4801301FB024400FBD9
:1003C000034E840A970A44EA815447EA8357A4FB00
:1003D000076802958D0A05FB07854FEA932C04FBFD
:1003E0000C542705029D4FEA065847EA1637B5EB2D
:1003F00008056EEB070C870E920E47EA811742EA5A
:100400008312A7FB0201B6EB0B0164EB00042B0D7A
:1004100043EA0C335E1844EB1C50DA465146E7FBC6
:100420000201C5F313044FEA0B3343EA14534FEAB6
:100430000432019C43EA0603A4F10C040294009CDC
:10044000CDE900B400F0A6F803B0BDE8F08F0020BD
:100450000146F9E70EB5C10F80EAE0700844CA070B
:10046000002140F233438DE80E000A460B4600F0AF
:1004700091F803B000BD70B5C1F30A5201F0004518
:100480000024C1F3130140F2FF3341F480119A427A
:1004900001DA002070BD40F233439A42A2F23342A7
:1004A00003DC524200F045F800E090402C43F1D0CC
:1004B000404270BD30B5041E71F1000404DB4FF002
:1004C0000044404264EB0101141E73F1000405DB9B
:1004D0001C464FF00043524263EB04038B4208BFBB
:1004E000824230BD30B5041E71F1000404DB4FF0D0
:1004F0000044404264EB0101141E73F1000405DB6B
:100500001C464FF00043524263EB0403994208BF7C
:10051000904230BD202A04DB203A00FA02F100208C
:1005200070479140C2F1200320FA03F31943904031
:100530007047202A04DB203A21FA02F0002170479C
:1005400021FA02F3D040C2F120029140084319463B
:100550007047202A06DBCB17203A41FA02F043EA23
:10056000E07306E041FA02F3D040C2F1200291406C
:1005700008431946704710B5141E73F1000408DAD9
:10058000401C41F1000192185B411A4301D120F057
:10059000010010BD2DE9F04D92469B4611B1B1FA14
:1005A00081F202E0B0FA80F220329046FFF7B2FF0B
:1005B00004460F4640EA0A0041EA0B0153465A46F8
:1005C000084313D0114653EA010019D0C8F1400284
:1005D0005046FFF7AEFF05460E4650465946424686
:1005E000FFF798FF084305D0012004E02046394674
:1005F000BDE8F08D0020054346EAE0762C43374302
:100600000A986305E40AA0EB08000022FD0A44EA08
:1006100047540A3002D500200146E9E701051019C8
:100620006941DDE9084500196941BDE8F04DA2E7DF
:10063000064C074D06E0E06840F0010394E807002F
:1006400098471034AC42F6D3FFF7A2FD1C290008EE
:100650003C290008FEE70000014800F061B90000F5
:100660001800002010B5002958D0826B4FF4D873C1
:10067000046803EB0113E45814F004049460046864
:10068000E4584DD0E40854600468E35803F00203D2
:10069000D3604FF4DA73046803EB0113E45804F0F9
:1006A0000F04146111620468E358C3F30723D36194
:1006B0004FF4DC73046803EB0113E4581475046809
:1006C000E458240A54750468E458240C94750468AA
:1006D000E3581B0ED3754FF4DE73046803EB01136C
:1006E000E45814760468E458240A54760468E458FC
:1006F000240C94760468E3581B0ED37603682022FA
:1007000089B11A610268536923F05003536190F86C
:100710003C20222A0DD0322A0BD00FE0426BA5E7F5
:10072000640D1460B0E7DA600268536923F00A03CD
:10073000ECE70268536923F40F435361122201234B
:10074000002990F83C1006D0522915D0622916D005
:10075000722906D115E042290ED0622908D07229EB
:1007600008D080F83C3000BF00F04CFB002010BDEA
:10077000322107E0522105E080F83C20F4E72221F5
:1007800000E0422180F83C10EEE7000030B4046B3A
:100790004FF400732360046B6360046B0023A36059
:1007A000046BE360036B1A61002202F114038C5C9A
:1007B000056B521CD2B2EC54082AF6D330BC0A2185
:1007C000014800F037BB00001800002000B58BB0D6
:1007D00000210122CDE90612039108920E220D4B51
:1007E00004910091019102910992984204D10591DE
:1007F000094901631C3141630849884205D1064912
:100800000592403101631C314163694600F00AF8EA
:100810000BB000BD18000020CC0200201001002009
:100820007047000010B5087D012282403A48D0F898
:10083000003243F00103C0F80032D0F8003223F454
:100840007C53C0F80032D0F800324C6A43EA0423EB
:10085000C0F80032D0F81C329343C0F81C32CB6988
:10086000B3B9D0F80C329343C0F80C328C894B6882
:1008700064F31F434C6900EBC404C4F840320C8994
:100880000B6864F31F434C6900EBC404C4F84432A2
:10089000CB69012B16D1D0F80C321343C0F80C32BF
:1008A0000C884B6864F31F434C6900EBC404C4F824
:1008B00040320C89CB6864F31F434C6900EBC404DD
:1008C000C4F844328B69002BD0F8043205D01343AE
:1008D000C0F804320B6913B106E09343F8E7D0F88F
:1008E00014329343C0F814320B69012B04D1D0F8B1
:1008F00014321343C0F81432096A012904D1D0F824
:100900001C121143C0F81C12D0F8001221F0010192
:10091000C0F80012002010BD0064004070470000C5
:100920002DE9F041044600680026C168C1F30013B8
:100930004169C1F3C002102113B10AB14E01C16077
:10094000206802694369C2F30012C3F380131AB12D
:1009500013B146F480660161216848694FF00105D2
:10096000C043C0074ED18A687648904323D0002008
:100970008B68754A9A4320D000228F68734BBB4323
:100980001DD00023104318433CD088688A68C0F308
:1009900040008B68C2F34022C3F340431043184326
:1009A00029D04A69204622F001024A6194F83C109D
:1009B000122906D00AE00120DAE70122DDE701234F
:1009C000E0E701684A6922F40F424A6190F83C105E
:1009D000422908D0522908D0722908D080F83C500A
:1009E00000F00EFB09E0222102E0322100E062214A
:1009F00080F83C10F4E746F4006620688168544AA9
:100A0000114381602168C868496910F0030FC1F380
:100A1000400104D019B100212046FFF723FE2168D0
:100A20000869496910F0030FC1F3001104D019B12E
:100A300001212046FFF716FE206C30432064206819
:100A40008169426911F0010F4369C2F30022C3F3C7
:100A5000C03305D022B11BB1216C41F001012164EA
:100A60008169C1F340034169C1F340224169C1F387
:100A7000C0312BB122B119B1216C41F002012164C6
:100A80008169C1F3800341694269C1F38021C2F3E6
:100A9000C0322BB121B11AB1216C41F004012164A3
:100AA000816911F0700F08D000224169C1F3C023A1
:100AB0004169C1F3C03112B121E00122F5E7F3B180
:100AC000E9B1816901F0700140292FD006DC1029BD
:100AD00009D020290BD030290DD123E0502929D06D
:100AE000602908D12AE0216C41F0080102E0216C64
:100AF00041F010012164816921F070018161206C55
:100B000000280DD021680420486084F83C502068FB
:100B1000416948F65B72914341612046FFF7FEFE52
:100B2000BDE8F081216C41F02001E3E7216C41F048
:100B30004001DFE7216C41F08001DBE7216C41F4EB
:100B40008071D7E7030000040003000800000310D1
:100B5000190501002DE9F041040004D094F83C008F
:100B6000002518B107E00120BDE8F08184F83D5070
:100B7000204600F093F8022084F83C0020680168C9
:100B800021F0020101602068016841F0010101606B
:100B900000F03AFB0746032605E000BF00F034FBF7
:100BA000C01B0A2863D820684068C007F6D02068B8
:100BB0004168C90768D0A169012901683FD021F0C7
:100BC00080010160E0690128206801683AD021F0C5
:100BD00040010160206A01282068016835D021F0B9
:100BE00020010160606A01282068016830D021F08E
:100BF00010010160A06A0128206801682BD021F053
:100C000008010160E06A01282068016826D021F00F
:100C100004010160D4E902010843D4E9041211433C
:100C200008436168491E08432168C861206801685B
:100C300021F00101016000F0E7FA07461CE041F0F5
:100C40008001BEE741F04001C3E741F02001C8E761
:100C500041F01001CDE741F00801D2E741F0040175
:100C6000D7E700BF00F0D0FAC01B0A2804D904F867
:100C70003C6F0320657077E720684068C007F1D1BA
:100C800020684068C00703D0042084F83C006AE76D
:100C90002564012084F83C00002065E7F0B5274B6F
:100CA0000768DFF894C01868032202240925244944
:100CB0000026401C87B067451CD11860012807D169
:100CC000086840F000700860086800F00070059047
:100CD0008DE85400CDE9032569461A4800F0B2F9C1
:100CE00001220021142000F003FB142000F0F4FA8C
:100CF00007B0F0BDDFF850C06745F9D10F6847F085
:100D000080670F600F68012807F0806705971860FB
:100D100007D1086840F000700860086800F00070B3
:100D200005904FF440508DE85100CDE90325694608
:100D3000064800F087F9DBE7006400400800002067
:100D400040380240000C02400068004000040240AD
:100D500010B56222722311B101291AD029E090F84E
:100D60003C40222C2FD090F83C40422C2BD090F8C5
:100D70003C40622C27D090F83C40722C23D090F855
:100D80003C40122C21D0322C22D0522C23D02222B3
:100D90001EE090F83C40322C15D090F83C40522C8C
:100DA00011D090F83C40622C0DD090F83C40722C51
:100DB00009D090F83C40122C09D0222C08D0422CAB
:100DC00009D0322204E0022010BD422200E052226B
:100DD00080F83C2001E080F83C3000220264026888
:100DE000536948F60174234353610068002941693F
:100DF00004D041F050014161002010BD41F00A01D2
:100E0000F9E70000406BC17D0848406B827D0068B7
:100E100001EB0221064A02EB4000A0F58050A0F849
:100E2000FE1B00210148FFF793BF000018000020BF
:100E30004C0300202DE9F05F0E46016804468868E7
:100E4000400105D48868000102D48868C0006FD5CD
:100E500094F83D0001280CD0012784F83D7094F8E7
:100E60003C00222808D0322808D062280ED0122058
:100E700005E00220BDE8F09F422000E0522084F807
:100E80003C008868400103D5002507E07220F6E7A2
:100E90008868000101D5012500E002254FF4C070EB
:100EA00000EB05100A5802F001020A50216B8A6813
:100EB000EAB3D4F800C05CF800301343CA6849684C
:100EC00042EAC1010B434CF80030216B0A7C02F06E
:100ED0000F020A614FF4C271226801EB05115358E9
:100EE00023F00F03535022685358D4F830C0DCF875
:100EF00010C043EA0C035350216B4FF4C47303EB4F
:100F000005130A7DD1F8151042EA01222168CA5062
:100F1000216B4FF4C67303EB05130A7ED1F8191049
:100F200042EA01222168CA5021680A5801E00DE016
:100F30005AE042F001020A5000F066F981464FF093
:100F40000008DFF8B0A0DFF8B0B026E02268135840
:100F5000D1F80CC0098843EA0C0343EA415111500F
:100F6000B3E7701C19D02EB100F04EF9A0EB0900C8
:100F7000B04212D9032084F83C004DB1012D09D0B4
:100F80004FF400002168886084F83D80032071E7F9
:100F90008020F7E74FF40040F4E7ADB12068012D61
:100FA000816816D0154888430028DAD194F83C00AF
:100FB000422811D0522811D0722813D084F83C70E6
:100FC00084F83D80002055E7206881682AEA010006
:100FD000EAE72BEA0100E7E7222000E0322084F86C
:100FE0003C00EDE76220FAE7042084F83C00012091
:100FF00040E70000030000040003000800000310A5
:10100000704790F83510022903D0802141650120F6
:101010007047052180F835100068016821F0010152
:1010200001600020704731B500F0EEF8009C0546E5
:10103000601C00D0641C00F0E7F8401BA042FAD30B
:1010400038BD00002DE9F84FDFF87CB100224FF0E9
:1010500001084FF0030A4FF00F090BF1040E00BF17
:101060000B6808FA02F42340A3426ED14D68022DAA
:1010700001D0122D0ED1D50800EB850CDCF82050E4
:101080005607F70E09FA07F6B5430E69BE402E4320
:10109000CCF82060066855000F790AFA05FC07F0C5
:1010A000030726EA0C06AF40374307604E68012E5F
:1010B00005D0022E03D0112E01D0122E0ED186683B
:1010C000CF6826EA0C06AF40374387604668A643E0
:1010D0000C79C4F30014944034434460C6688C68AF
:1010E00026EA0C06AC403443C4604C68E40065D585
:1010F000364C256845F480452560246822F00305B8
:1011000004F480440094324C2E19D6F80848950710
:101110002F0F09FA07F5AC432E4DA84201D1002547
:1011200024E02D4DA84201D101251FE02B4DA842FE
:1011300001D102251AE02A4DA84201D1032515E06C
:10114000284DA84202D1042510E037E0264DA842E0
:1011500001D105250AE0254DA84201D1062505E06B
:10116000234DA84201D1072500E00825BD402543B5
:10117000C6F80858DBF800405D464E689C43F6030D
:1011800000D51C432C60DEF8004075464E689C4339
:10119000B60300D51C432C600B4D08352C684E68F7
:1011A0009C43F60200D51C432C60074D0C352C687F
:1011B0004E689C43B60200D51C432C60521C102A7A
:1011C000FFF44EAFBDE8F88F003C014044380240C8
:1011D00000300140000002400004024000080240CC
:1011E000000C0240001002400014024000180240AF
:1011F000001C02400069084000D0012070470AB17D
:10120000816170470904FBE70148006870470000EE
:101210000000002002480168491C0160704700007E
:10122000000000200B4810B5016841F40071016016
:10123000016841F480610160016841F480710160DE
:10124000032000F075F8002000F006F800F018F810
:10125000002010BD003C024010B5044607484FF482
:101260007A710068B0FBF1F000F0C7FA0022214665
:10127000501E00F03DF8002010BD000004000020CA
:1012800010B5032000F054F8002211466FF00B0057
:1012900000F02EF8002211466FF00A0000F028F846
:1012A000002211466FF0090000F022F800221146DA
:1012B000501F00F01DF800221146101F00F018F812
:1012C00000221146901E00F013F80022BDE81040E5
:1012D0001146501E00F00CB800F01F020121914091
:1012E0004009800000F1E020C0F8001170470000C4
:1012F000F0B40E4B1B680C46C3F30223C3F1070581
:10130000042D00D90425191D072901D2002300E06E
:10131000DB1E012606FA05F1491E214099409E4038
:10132000761E16403143F0BC00F062BE0CED00E0CA
:10133000064900F0070208684FF6FF03184040EA2C
:101340000220034A10430860704700000CED00E0E3
:101350000000FA052DE9F0470E46050065D0DFF8DC
:101360001481D8F80000F7B200F00F00B04207D2A5
:1013700088F80070D8F8000000F00F00B04254D197
:1013800028683D4C810712D5400703D5206840F4FA
:10139000E05020602878000703D5206840F46040C2
:1013A00020602068A96820F0F000084320602878B9
:1013B000C0072DD0304968680839012812D00228AA
:1013C00013D0032811D00968890700292DDA216874
:1013D00021F0030101432160FFF716FF814641F22E
:1013E000883A0EE009688903EFE709688901ECE7AC
:1013F000FFF70AFFA0EB0901514502D90320BDE820
:10140000F0872068696800F00C00B0EB810FEFD125
:10141000D8F80010404601F00F01B14207D907701B
:10142000006800F00F00B04201D00120E7E7287803
:10143000400705D52068E96820F4E05008432060A3
:101440002878000706D52068296920F4604040EA22
:10145000C100206000F01CF82168084AC1F30311A4
:10146000515CC840064908600020FFF7F5FE0020E7
:10147000C5E70000003C0240083802400C29000883
:1014800004000020014800687047000004000020AC
:10149000154810B5006810F00C02144813D0411024
:1014A000042A0FD0082A0ED10F4C241F226823686B
:1014B00002F03F025B0207D52068C0F38810A0FB52
:1014C000010106E0084610BD2168C1F38811A1FBA7
:1014D00000010023FEF774FE2168C1F30141491C9D
:1014E0004900B0FBF1F010BD083802400024F400C0
:1014F0002DE9F84F050071D0DFF8D0922878A9F1D6
:10150000040BC007ABF104044AD0D9F800104846D8
:10151000C1F38101012908D00068C0F381000228CD
:101520000AD1DBF80000400206D52068800337D5D9
:1015300068680028DFD033E06868B0F5803F10D0DD
:10154000B0F5A02F206810D020F4803020602068F3
:1015500020F4802020606868A8B1FFF755FE064699
:101560000DE0206840F48030F4E740F480202060F3
:10157000F7E700BFFFF748FE801B642873D8206898
:101580008003F7D50CE0FFF73FFE064605E000BFFD
:10159000FFF73AFE801B6428F0D820688003F7D458
:1015A00028788B4F80074FF0010A4FF000083DD597
:1015B000D9F80010484611F00C0F08D00068C0F3AD
:1015C000810002280BD1DBF80000400207D420681C
:1015D000800715D5E868012800D111E0F3E0E8683C
:1015E000B0B1C7F800A0FFF70FFE064605E000BF48
:1015F000FFF70AFE801B022835D820688007F7D540
:101600002068296920F0F80040EAC10020600DE060
:10161000C7F80080FFF7F8FD064604E0FFF7F4FD89
:10162000801B02281FD820688007F7D4287800077D
:1016300024D56848696981B1C0F800A0FFF7E4FDCE
:10164000064604E0FFF7E0FD801B02280BD85F4848
:101650006C3000688007F5D510E0C0F80080FFF717
:10166000D3FD064605E074E0FFF7CEFD801B02289F
:101670006FD856486C3000688007F5D4287840074A
:1016800053D552483830016841F0805101600068FC
:1016900000F0805000905048016841F48071016072
:1016A000FFF7B2FD064604E0FFF7AEFD801B0228FF
:1016B0004FD849480068C005F6D5444EA86868363A
:1016C00001280FD00528306810D020F001003060CC
:1016D000306820F004003060A868B8B1FFF794FDCE
:1016E00000900FE0306840F00100F4E740F00400A3
:1016F0003060F7E7FFF788FD0099411A41F2883022
:10170000814258D830688007F4D50EE0FFF77CFDA1
:10171000009007E0FFF778FD0099411A41F2883008
:10172000814248D830688007F4D4A86990B3D9F8CA
:101730000010C1F38101022945D00228C7F860805A
:1017400003D0FFF761FD054638E0FFF75DFD064673
:1017500005E030E0FFF758FD801B02282BD82068F9
:101760008001F7D4D5E907010843A96A1B4A490853
:1017700002EB01416A6A41EA8211084395F82C1094
:1017800040EA0161CBF80010C7F860A0FFF73CFD0C
:10179000054606E015E000BFFFF736FD401B0228B6
:1017A00009D820688001F7D50BE000BFFFF72CFDBA
:1017B000401B022802D90320BDE8F88F2068800171
:1017C000F4D40020F8E70120F6E7000008380240D2
:1017D00000004742800E4742007000400000FFFFBB
:1017E0004FF0E0210428086903D020F004000861CC
:1017F000704740F00400FAE7704710B5401EB0F1A2
:10180000807F01D3012010BD4FF0E02460610F21E3
:10181000601700F0EDFB0020A06107202061002090
:1018200010BD10B5FFF7E8FF10BD7047704730B529
:1018300090F83820012A20D0012280F83820022395
:1018400080F8393003685C6824F070045C600368D9
:101850005C680D682C435C6003689C6824F080041D
:101860009C6003689C6849680C439C6080F8392040
:10187000002180F83810084630BD022030BD10B578
:10188000040003D094F8390010B107E0012010BD26
:10189000002084F83800204600F00CF8022084F87C
:1018A0003900211D206800F003FD012084F8390073
:1018B000002010BD08B501682248B1F1804F11D059
:1018C000214A91421DD1016841F002010160006886
:1018D000022200F00200009001211D20FFF708FD08
:1018E0001D201FE0016841F0010101600068012234
:1018F00000F00100009011461C20FFF7F9FC1C20AD
:1019000010E0124A914211D1016841F004010160D6
:101910000068032200F00400009001211E20FFF760
:10192000E7FC1E20BDE80840FFF7D6BC084A9142FC
:1019300007D1016841F008010160006800F008006B
:10194000009008BD403802400004004000080040FC
:10195000000C00400168CA6842F00102CA600068D9
:10196000016841F0010101600020704770B5044634
:1019700090F83800012817D0012584F8385002204B
:1019800084F839002068826822F0770222F47F42CE
:1019900082600868502837D00DDC202859D005DC3B
:1019A00088B3102841D151E0022070BD302853D0B7
:1019B00040283AD13FE060282ED070280BD0B0F5F7
:1019C000805F03D0B0F5005F2FD110E02068816800
:1019D00021F0070115E0CB68D1E90121206800F072
:1019E000C7FC2168886840F0770088601DE0CB68FC
:1019F000D1E90121206800F0BBFC2068816841F436
:101A00008041816011E01EE0CA684968206800F0EA
:101A1000C1FC5021206806E0CA684968206800F0CF
:101A2000CAFC6021206800F0ADFC84F83950002029
:101A300084F8380070BDCA684968206800F0AAFCC4
:101A400040212068EFE700212068ECE710212068A2
:101A5000E9E720212068E6E730212068E3E77047C6
:101A600070B50446006801694FF00005C943890755
:101A700015D4C168C943890711D4E91E0161012049
:101A80002076206880698007204602D0FFF7E7FFB4
:101A900004E000F098F8204600F096F825762068DB
:101AA0000169C943490717D4C168C943490713D419
:101AB0006FF004010161022020762068806910F433
:101AC000407F204602D0FFF7CAFF04E000F07BF819
:101AD000204600F079F8257620680169C943090796
:101AE00016D4C168C943090712D46FF00801016117
:101AF000042020762068C0698007204602D0FFF7C6
:101B0000AEFF04E000F05FF8204600F05DF82576B7
:101B100020680169C943C90617D4C168C943C90609
:101B200013D46FF010010161082020762068C0698D
:101B300010F4407F204602D0FFF791FF04E000F050
:101B400042F8204600F040F8257620680169C94334
:101B5000C90708D1C168C943C90704D1891E0161F9
:101B6000204600F032F820680169C943090609D40B
:101B7000C168C943090605D46FF0800101612046A0
:101B8000FFF753FE20680169C943490609D4C168BB
:101B9000C943490605D46FF040010161204600F0B9
:101BA00015F820680169C94389060BD4C168C94387
:101BB000890607D46FF0200101612046BDE870401E
:101BC000FFF734BE70BD704770477047704770476D
:101BD00070B5026804461068D168536910F00F0FA1
:101BE00051D003F0010501F4907635435DD0C20772
:101BF00005D0CA0503D5E26B42F00102E263420759
:101C000005D5DA0703D0E26B42F00202E2638207F5
:101C100005D5DA0703D0E26B42F00402E263020763
:101C200005D5DA0703D0E26B42F00802E263E26B0B
:101C3000002A34D0800604D5880602D5204600F05C
:101C4000E2FB20684069E16BC0F3801001F00801FD
:101C50000143204624D000F0C8FB206841694906B2
:101C60001AD5416921F040014161606BA0B11B4967
:101C70000165606BFFF7C5F9002810D0606B016D3E
:101C8000BDE87040084783060FD58B060DD520466A
:101C9000BDE8704000F0B7BB2046FFF798FF70BD6D
:101CA000FFF795FF0020E06370BD030606D50B0625
:101CB00004D52046BDE8704000F0EBBB4006F3D5EC
:101CC0004806F1D5D168204621F04001D16020219D
:101CD00084F8391000F005F870BD0000DB2300081F
:101CE00070477047FEE7000030B5124887B000210A
:101CF000026842F001020260026802F001020592ED
:101D0000026842F0100202600068022400F0100035
:101D100005901C20012503948DE8230069460648A0
:101D2000FFF790F96946054800950294FFF78AF994
:101D300007B030BD303802400010024000000240C1
:101D40002DE9F0412E4D2F4F2F4C012608B12E705A
:101D500001E02878A0B110212046FFF74BFAB0B17E
:101D600008212046FFF746FA88B104212046FFF7F4
:101D700041FA60B101213846FFF73CFA012806D04C
:101D800010212046FFF736FA012824D035E00A203A
:101D900000F0D8FB0020287010212046FFF72AFA17
:101DA00080B108212046FFF725FA70B104212046B2
:101DB000FFF720FA58B101213846FFF71BFA012836
:101DC00007D01AE00120BDE8F0810220FBE70320E4
:101DD000F9E70420F7E708212046FFF70BFA01286E
:101DE0000BD104212046FFF705FA012805D1012176
:101DF0003846FFF7FFF900B92E700020E3E7000036
:101E00001600002000000240001002400D4810B5EE
:101E10000B4901600421416000214FF48022816060
:101E2000C0E903129200C0E90521C161016241626B
:101E30008162C162FEF78EFE002800D0FEE710BD71
:101E40000064004018000020284800B5016887B0F1
:101E500041F004010160016801F00401059101688D
:101E600041F020010160016801F020010591016845
:101E700041F080010160016801F080010591016875
:101E800041F001010160016801F001010591016863
:101E900041F002010160016801F002010591016851
:101EA00041F040010160016801F0400105910168C5
:101EB00041F010010160016801F010010591016815
:101EC00041F0080101600068694600F008000590D3
:101ED0004FF4C07000900120019002900220039006
:101EE0000348FFF7AFF807B000BD000030380240EC
:101EF0000018024010B5124886B04FF080410160D2
:101F00004FF47A410024C0E901140521C0E903140B
:101F1000FFF7B5FC00B1FEE74FF480500090694632
:101F20000748FFF723FD00B1FEE7049404A9044825
:101F30000594FFF77CFC002800D0FEE706B010BD3A
:101F40005C00002010B5134886B0114901604FF4C1
:101F50007A410024C0E901146421C0E90314FFF7A9
:101F60008EFC00B1FEE74FF48050009069460948AE
:101F7000FFF7FCFC00B1FEE7049404A905480594B2
:101F8000FFF755FC002800D0FEE706B010BD0000AA
:101F9000000400409800002010B5134886B0114995
:101FA00001604FF47A410024C0E901148911C0E9AD
:101FB0000314FFF764FC00B1FEE74FF4805000907B
:101FC00069460948FFF7D2FC00B1FEE7049404A972
:101FD00005480594FFF72BFC002800D0FEE706B06B
:101FE00010BD000000080040D4000020FEE770474C
:101FF0000907090E002806DA00F00F0000F1E020C2
:1020000080F8141D704700F1E02080F8001470473C
:1020100010B504462DED088B53EC102B90ED021BF0
:1020200051EC110BFEF79EF994ED0A8B9FED340BEA
:1020300041EC190B53EC102B51EC180BFEF798F9EF
:1020400053EC192BFEF791F994ED0C1B53EC112B6B
:10205000FEF7E7F894ED081B53EC112BFEF788F917
:1020600094ED060B41EC1A0B53EC192B51EC100BB1
:10207000FEF77EF941EC1B0B53EC182B51EC190BBE
:10208000FEF770F994ED041B53EC112BFEF770F979
:1020900053EC1B2BFEF7C5F853EC1A2BFEF7C1F8D7
:1020A00041EC100B94ED001B53EC102B51EC110B79
:1020B000FEF7B7F894ED100B41EC180B53EC102B16
:1020C000FEF7F8F901D294ED108B94ED0E0B51EC64
:1020D000180B53EC102BFEF705FA01D294ED0E8B82
:1020E00094ED0A0B84ED0C0B84ED0A9B84ED008BC0
:1020F000B0EE480AF0EE680ABDEC088B10BD000097
:1021000000000000000000407047704710B5FFF766
:1021100081F8BDE81040FFF784BB000030B52448CB
:1021200093B00025016841F080510160006800F023
:10213000805011901F48016841F48041016000689F
:10214000022400F4804011900120009000040190CE
:102150008001CDE9064008AA0420802182E813000E
:102160000B906846FFF7C4F900B1FEE70CA90F20F9
:1021700081E831004FF4A0500F904FF48050109040
:1021800004210CA8FFF7E6F800B1FEE7FFF77AF9A3
:102190004FF47A71B0FBF1F0FFF72FFB0420FFF74B
:1021A0001FFB00221146501EFFF7A2F813B030BDEE
:1021B00040380240007000401048016841F470014E
:1021C00001600F48016841F0010101600C4A0021E3
:1021D0000832116002680B4B1A400260031D0A4A64
:1021E0001A60026822F48022026005480C30016007
:1021F00002495806803908607047000088ED00E009
:1022000000380240FFFFF6FE1030002410B50448ED
:10221000FFF726FCBDE810400248FFF721BC000094
:10222000540100209001002010B50C4C0C484FF4D4
:102230000071227822B10022FEF7E1FF002003E0C6
:102240000122FEF7DCFF0120207000F01DFB00F0F2
:102250003FFBBDE810400348FFF702BC0C00002024
:10226000001402405C00002010B50B4C0B484FF4EA
:102270008061627822B10022FEF7C1FF002003E0F6
:102280000122FEF7BCFF0120607000F067F9BDE895
:1022900010400348FFF7E4BB0C000020001402408C
:1022A000980000200148FFF7DBBB0000D4000020AD
:1022B000F0B50268234B244D244E254F254C4FF09A
:1022C000804C984209D0604507D0A84205D0B04262
:1022D00003D0B84201D0A04204D122F0700E4A6867
:1022E00042EA0E0298421BD0604519D0A84217D08E
:1022F000B04215D0B84213D0A04211D0164DA8421A
:102300000ED0164DA8420BD0154DA84208D0154D41
:10231000A84205D0144DA84202D0144DA84203D1C2
:1023200022F44075CA682A4302608A68C2620A6859
:102330008262984201D0A04201D109690163012162
:102340004161F0BD00000140000400400008004071
:10235000000C0040000401400040014000440140E6
:102360000048014000180040001C004000200040D0
:1023700010B5846842EA032224F47F440A432243CE
:10238000826010BD826822F070020A4342F00701A9
:102390008160704710B5036A046A24F00104046286
:1023A000846924F0F00444EA021423F00A020A4388
:1023B0008461026210BD10B5036A23F0100303624A
:1023C0008369046A23F4704343EA023224F0A003D1
:1023D00043EA01118261016210BD10B5806B0021DA
:1023E000C185C184FFF7F3FB10BD0168CA6822F400
:1023F0009072CA6001684A6922F001024A61202194
:1024000080F83A10704710B590F83A10222901D0A0
:10241000022010BD8168B1F5805F11D001690029EB
:1024200001681FD0496801F07F03816A4A1C8262FB
:102430000B70C18D491E0904090CC18518D026E016
:102440000269816A002A0268526805D0D2B20A8005
:10245000816A491C8162ECE7C2F308020A80816A42
:10246000891CF7E74A68816A4B1C83620A70E0E7BF
:102470000168CA6822F49072CA6001684A6922F051
:1024800001024A61202180F83A10FFF729FC002060
:1024900010BD90F83910212901D0022070478168C1
:1024A000B1F5805F016A0BD04A1C026202680978AC
:1024B0005160C18C491E0904090CC1840ED017E07B
:1024C00009880268C1F30801516001690029016AA5
:1024D00002D0491C0162ECE7891CFBE70168CA686D
:1024E00022F08002CA600068C16841F04001C1600A
:1024F000002070470148FFF76BBB0000CC010020B3
:102500000148FFF765BB00000C0200200148FFF7FF
:102510005FBB00004C0200200148FFF759BB0000E0
:102520008C020020FEE702E008C8121F08C1002A42
:10253000FAD170477047002001E001C1121F002A44
:10254000FBD1704742F20E7204E0401E80B2114689
:10255000491EFDD10028F8D1704700002DE9F04751
:1025600001202DED068BFFF7EBFBDFF8D081054650
:1025700004214046FEF73EFE714F724C4FF48076C8
:102580009FED71AB01282CD004214046FEF732FEAE
:10259000002869D18021B8463846FEF72BFE002876
:1025A00074D00027B146314646464046FEF722FE2B
:1025B00000286CD0002007439FED658B9FED669B44
:1025C0007DD080213046FEF715FE40B349463046A7
:1025D000FEF710FE002847D184ED029B84ED149B8A
:1025E0008DE08021B8463846FEF704FE98B10027FA
:1025F000B146314646464046FEF7FCFD68B1002034
:10260000074311D080213046FEF7F4FD9FED548B37
:102610009FED559BD9E70127EAE70120F0E784ED1C
:10262000028B84ED148B74E09FED510B012D1FD0B4
:102630009FED511B022D22D0032D29D0042D31D026
:1026400084ED02AB84ED14AB84ED26AB84ED38ABA6
:102650005FF0000000EBC00104EBC101401CC0B200
:1026600081ED00AB0828F5D3BDEC068BBDE8F08703
:1026700084ED020B84ED140B84ED260B18E084ED41
:10268000021B84ED141B84ED261B07E013E014E00D
:1026900084ED020B84ED141B84ED260B84ED381BB6
:1026A000E2E70CE084ED021B84ED140B84ED261BA5
:1026B00084ED380BD8E7012774E701207BE7012D73
:1026C00019D0022D21D0032D29D0042D2ED084ED38
:1026D00002AB84ED14AB84ED26AB84ED38AB002067
:1026E00000EBC00104EBC101401CC0B281ED00ABA6
:1026F0000828F5D3B8E784ED028B84ED148B84EDC4
:10270000268B00BF84ED388BAEE784ED029B84ED11
:10271000149B84ED269B00BF84ED389BA4E784EDD9
:10272000028B84ED149B84ED268BF5E784ED029BF0
:1027300084ED148B84ED269BE4E70000000C02403E
:1027400000180240600300200000000000000000AC
:10275000000000000000694000000000000069C0A7
:102760000000000000408F400000000000408FC0CB
:102770000000000000F8A1400000000000F8A1C027
:102780000C4800B5016887B041F020010160006885
:10279000694600F0200005904FF4C06000900120D1
:1027A00001900290022003900348FEF74BFC07B013
:1027B00000BD00003038024000140240FEF732FD38
:1027C000FFF7ACFCFFF740FBFFF720FBFFF792FBA6
:1027D000FFF7B8FBFFF7E0FB0C48FDF7F7FF00F051
:1027E00017F8FFF781FAFFF7CBFF00210748FEF744
:1027F000AFFA0A20FEF717FC04484430FFF7AAF8A6
:1028000002488030FFF7A6F8FEE70000180000201D
:102810009FED120B134A9FED141B9FED152B9FED9F
:10282000163B9FED174B002101EBC10002EBC000EE
:1028300000F1080380ED000B491C83EC060BC9B2C4
:10284000082980ED080B80ED0A0B80ED0C0B80ED64
:102850000E3B80ED104BE7D37047000000000000F6
:1028600000000000600300200000000000000440A1
:10287000333333333333D33F000000000000D04004
:10288000000000000000D0C02DE9F0410F4E0E4DB9
:10289000002406F5107700BF35F91400FDF7DAFDC6
:1028A00041EC100B04EBC40006EBC000FFF7B0FBDB
:1028B00051EC100BFDF7DFFD27F81400641CE4B2A7
:1028C000082CE9D3BDE8F0814C0300206003002010
:1028D0000B490C480A88130A037042704A88130A8D
:1028E0008370C2708A88130A03714271C9880A0A08
:1028F0008271C171014608220348FDF747BF0000FD
:10290000A00500200E00002018000020000000009C
:102910000000000001020304060708093C29000822
:102920000000002018000000262500085429000897
:10293000180000209809000036250008000000005B
:102940000024F4000000000000000000000000006F
:042950000000010082
:040000050800018965
:00000001FF
