:020000040800F2
:10000000480600209D010008C31D0008A91900082A
:10001000C11D0008A9020008A1240008000000007A
:10002000000000000000000000000000C71D0008E4
:10003000AB02000800000000C51D0008C91D000833
:10004000B7010008B7010008B7010008B7010008B0
:10005000B7010008B7010008B7010008B7010008A0
:10006000B7010008B7010008B7010008B701000890
:10007000B7010008B7010008B7010008B701000880
:10008000B7010008B7010008B7010008B701000870
:10009000B7010008B7010008B7010008B701000860
:1000A000B7010008B7010008B7010008B701000850
:1000B0006D1E0008791E0008B7010008B70100088E
:1000C000B7010008B7010008B7010008B701000830
:1000D000B70100088924000895240008B70100082A
:1000E000B7010008B7010008B7010008B701000810
:1000F000B7010008911E0008B7010008B701000809
:10010000B7010008B7010008851E0008B701000804
:10011000B7010008B7010008B7010008B7010008DF
:10012000B7010008B7010008B7010008B7010008CF
:10013000B7010008B7010008B7010008B7010008BF
:10014000B7010008B7010008B7010008B7010008AF
:10015000B7010008B7010008B7010008B70100089F
:10016000B7010008B7010008B7010008B70100088F
:10017000B7010008B7010008B7010008000000003F
:10018000B7010008B7010008DFF80CD000F07AF8DA
:1001900000480047C1240008480600200648804760
:1001A00006480047FEE7FEE7FEE7FEE7FEE7FEE75C
:1001B000FEE7FEE7FEE7FEE75D1E00088901000896
:1001C0002DE9F05F0546002092469B46884606468C
:1001D000814640241BE0284641464746224600F01F
:1001E00041F853465A46C01A914110D31146184659
:1001F000224600F028F82D1A67EB01084F462246E8
:100200000120002100F01FF817EB00094E41201ECD
:10021000A4F10104DFDC484631462A464346BDE8E6
:10022000F09FD2B201E000F8012B491EFBD27047CB
:100230000022F6E710B513460A4604461946FFF7B2
:10024000F0FF204610BD202A04DB203A00FA02F11C
:10025000002070479140C2F1200320FA03F31943B4
:1002600090407047202A04DB203A21FA02F0002156
:10027000704721FA02F3D040C2F1200291400843B6
:1002800019467047064C074D06E0E06840F0010350
:1002900094E8070098471034AC42F6D3FFF778FF94
:1002A00080280008A0280008FEE7704772B6FEE725
:1002B0002DE9F0410446A66D00F074F9054694F866
:1002C00035000027022806D08020606584F834704D
:1002D0000120BDE8F0812068016821F0160101606D
:1002E0002068416921F080014161206C08B9A06C4F
:1002F00020B12068016821F00801016020680168D0
:1003000021F0010101602068006810F0010F12D097
:1003100000F048F9401B052808D92020606503201B
:1003200084F8350084F83470BDE8F08120680068F6
:1003300010F0010FECD194F85C003F2101FA00F0BD
:10034000B060012084F8350084F834700020BDE8E6
:10035000F08190F83510022903D0802141650120F9
:100360007047052180F835100068016821F001010F
:1003700001600020704700002DE9F84F0022DFF8EF
:10038000FCA1DFF8F4914FF0010E03274FF00F08A6
:10039000AAF1040B0EFA02FC0B6803EA0C03634596
:1003A0007ED10C7904F00304012C01D0022C14D16D
:1003B0008568540007FA04F6B543CE6806FA04F4DB
:1003C0002C438460446824EA0C0C0C79C4F30014B8
:1003D000944044EA0C0CC0F804C0D1F804C037EAD9
:1003E0000C0C0CD0C4684FEA420C07FA0CF5AC4375
:1003F0008D6805FA0CFC4CEA040CC0F80CC091F8AE
:1004000004C00CF0030CBCF1020F12D14FEAD20C65
:1004100000EB8C04256A4FEA427C4FEADC6C08FA58
:100420000CF6B5430E6906FA0CFC4CEA050CC4F850
:1004300020C004684FEA420C07FA0CF5AC430D7972
:1004400005F0030505FA0CFC4CEA040CC0F800C0EA
:10045000D1F804C01CF4403F6FD0D9F800C04CF470
:10046000804CC9F800C0D9F800C00CF4804CCDF81D
:1004700000C022F0030C0CF1804505F59835D5F845
:1004800008C89407240F08FA04F62CEA0606A0F11F
:10049000804CBCF5003C56D0BCF5806C56D000E0DA
:1004A0004BE0BCF5806C54D0BCF5806C54D0BCF5EE
:1004B000806C54D0BCF5806C54D0BCF5806C54D0AA
:1004C000BCF5806C54D04FF0080C0CFA04FC4CEADC
:1004D000060CC5F808C8DAF800C02CEA030C4C6812
:1004E00014F4801F01D04CEA030CCAF800C0244C5D
:1004F000D4F800C02CEA030C4D6815F4001F01D09D
:100500004CEA030CC4F800C0DBF800C02CEA030C72
:100510004C6814F4003F01D04CEA030CCBF800C047
:10052000184CD4F800C02CEA030C4D6815F4803F39
:1005300001D04CEA030CC4F800C0521C102AFFF48E
:1005400029AFBDE8F88F4FF0000CBEE74FF0010C6B
:10055000BBE74FF0020CB8E74FF0030CB5E74FF0E4
:10056000040CB2E74FF0050CAFE74FF0060CACE718
:100570004FF0070CA9E7000044380240083C014056
:100580000C3C0140003C01400069084201D00120C0
:10059000704700207047002A01D08161704709042C
:1005A00081617047014880687047000000000020AA
:1005B0000248816802781144816070470000002081
:1005C00010B50B48016841F400710160016841F405
:1005D00080610160016841F480710160032000F0D6
:1005E00085F8002000F006F800F026F8002010BD85
:1005F000003C024070B504460D4D4FF47A712878E6
:10060000B1FBF0F00B490968B1FBF0F000F0DCFB46
:1006100008B1012070BD102C07D200222146501EC7
:1006200000F030F86C60002070BD012070BD00004B
:10063000000000200C0000200A4808B5016841F4C1
:1006400080410160006800F4804000900548001F70
:10065000016841F080510160006800F08050009016
:1006600008BD00004438024000280ADB00F01F01EA
:10067000012202FA01F14009800000F1E020C0F8F7
:100680000011704710B4184B1B68C3F30223C3F169
:10069000070CBCF1040F01D94FF0040C1C1D072CF2
:1006A00001D2002300E0DB1E012404FA0CFCACF1B3
:1006B000010C0CEA0101994004FA03F35B1E1A4095
:1006C0001143002806DB00F1E020090180F8001446
:1006D00010BC704700F00F0000F1E020090180F825
:1006E000141D10BC704700000CED00E000F0070086
:1006F000064A11684FF6FF03194041EA002040F016
:10070000FD7040F080601060704700000CED00E06C
:100710002DE9F04704460D46002C13D0DFF8549124
:10072000D9F80000EFB200F00700A8420DD289F816
:100730000070D9F8000000F00700A84205D00120A1
:10074000BDE8F0870120BDE8F08720684A4E10F030
:10075000020F14D010F0040F03D0306840F4E050C2
:100760003060207810F0080F03D0306840F460400B
:1007700030603068A16820F0F000084330602078D5
:1007800010F0010F3ED060683C49012808D00228D3
:100790000DD003280BD0096811F0020F28D00AE011
:1007A000096811F4003F06D10120BDE8F08709680F
:1007B00011F0007F19D0316821F003010843306047
:1007C000FFF7F0FE80463068616800F00C00B0EB87
:1007D000810F17D041F2883AFFF7E4FEA0EB080042
:1007E000504508D90320BDE8F0870120BDE8F08717
:1007F0000120BDE8F0873068616800F00C00B0EBC4
:10080000810FE9D1D9F8000000F00700A8420AD909
:1008100089F80070D9F8000000F00700A84202D063
:100820000120BDE8F087207810F0040F05D0306873
:10083000E16820F4E05008433060207810F0080FA1
:1008400006D03068216920F4604040EAC100306081
:1008500000F042F831680A4AC1F30311515CC84004
:100860000849086008480068FFF7C4FE0020BDE89A
:10087000F0870000003C0240083802400038024087
:10088000682800080C0000200400002001480068CF
:10089000704700000C00002000B5FFF7F7FF044987
:1008A0000968044AC1F38221515CC84000BD0000C0
:1008B000083802407828000800B5FFF7E7FF044930
:1008C0000968044AC1F34231515CC84000BD0000D0
:1008D000083802407828000810B51748006810F062
:1008E0000C01164816D04310042912D0082911D142
:1008F000134C216801F03F02216811F4800F0AD0E7
:100900002068C0F38810A0FB03010023FFF758FC08
:1009100009E0184610BD21680023C1F38811A1FB2E
:100920000001FFF74DFC2168C1F30141491C49005A
:10093000B0FBF1F010BD0000083802400024F400C4
:10094000043802402DE9F84F0446002C12D02078DC
:10095000FB4E10F0010FA6F1040563D0301D0168B5
:1009600001F00C0104290CD0006800F00C000828EC
:1009700003D010E00120BDE8F88F306810F4800F3C
:1009800009D0286810F4003F4CD06068002849D195
:100990000120BDE8F88F6068B0F5803F14D0B0F555
:1009A000A02F16D0286820F480302860286820F412
:1009B00080202860606810B3FFF7F4FD07462868C0
:1009C00010F4003F0ED02DE0286840F480302860FD
:1009D000F0E7286840F480202860286840F48030E0
:1009E0002860E7E7FFF7DEFDC01B642802D903207B
:1009F000BDE8F88F286810F4003FF3D012E0FFF74D
:100A0000D1FD0746286810F4003F0BD0FFF7CAFD60
:100A1000C01B642802D90320BDE8F88F286810F4B1
:100A2000003FF3D12078C74F10F0020F4FF00009BC
:100A300057D0C548016811F00C0F14D0006800F0C1
:100A40000C00082803D1306810F4800F0BD0E06848
:100A500080B301203860FFF7A5FD8046286810F0BC
:100A6000020F12D01EE0286810F0020F05D0E068D7
:100A7000012802D00120BDE8F88F2868216920F004
:100A8000F80040EAC10028602BE0FFF78BFDA0EBE7
:100A90000800022802D90320BDE8F88F286810F06A
:100AA000020FF2D02868216920F0F80040EAC10066
:100AB000286016E0FFE7C7F80090FFF773FD804657
:100AC000286810F0020F0CD0FFF76CFDA0EB0800B7
:100AD000022802D90320BDE8F88F286810F0020F21
:100AE000F2D1207810F0080F35D09848DFF860A2D6
:100AF0006169C1B101210160FFF754FD8046DAF858
:100B0000000010F0020F26D1FFF74CFDA0EB08000B
:100B1000022802D90320BDE8F88FDAF8000010F0AF
:100B2000020FF1D017E0C0F80090FFF73BFD8046C0
:100B3000DAF8000010F0020F0DD0FFF733FDA0EB44
:100B40000800022802D90320BDE8F88FDAF8000077
:100B500010F0020FF1D1207810F0040F71D04FF097
:100B600000087C48006810F0805F0AD1794801686D
:100B700041F080510160006800F0805000904FF01B
:100B80000108DFF8D4B1DBF8000010F4807F1BD13E
:100B9000DBF8000040F48070CBF80000FFF702FDA6
:100BA0008246DBF8000010F4807F0DD1FFF7FAFCDD
:100BB000A0EB0A00022802D90320BDE8F88FDBF879
:100BC000000010F4807FF1D0A068DFF890B1012818
:100BD00018D005281DD0DBF8000020F00100CBF86C
:100BE0000000DBF8000020F00400CBF80000A06853
:100BF00040B3FFF7D7FC8246DBF8000010F0020F8D
:100C000014D03EE0DBF8000040F00100CBF800001B
:100C1000EDE7DBF8000040F00400CBF80000DBF863
:100C2000000040F00100CBF80000E0E7FFF7BAFC5D
:100C3000A0EB0A0141F28830814204D90320BDE8CB
:100C4000F88F26E005E0DBF8000010F0020FEDD091
:100C500017E0FFF7A7FC8246DBF8000010F0020F58
:100C60000FD0FFF79FFCA0EB0A0141F288308142D0
:100C700002D90320BDE8F88FDBF8000010F0020F66
:100C8000EFD1B8F1010F04D13248016821F0805151
:100C90000160A069F0B32C4909684FF0FF3801F0FA
:100CA0000C01082966D0022810D0C7F86090FFF721
:100CB00079FC0446286810F0007F2BD0FFF772FC07
:100CC000001B022851D90320BDE8F88FC7F86090B7
:100CD000FFF768FC8146286810F0007F0CD0FFF712
:100CE00061FCA0EB0900022802D90320BDE8F88FBF
:100CF000286810F0007FF2D1216AE069A26A0843F7
:100D0000616A08EB5202890141EA0241084394F802
:100D10002C1000E055E040EA0160306001203866A8
:100D2000FFF740FC0446286810F0007F49D1FFF728
:100D300039FC001B022813D90320BDE8F88F0000FE
:100D4000043802400000474208380240800E474203
:100D50007438024040380240007000407038024051
:100D6000286810F0007FE2D02BE0286810F0007FA8
:100D7000A4D126E0012822D03068E26900F4800185
:100D800091421AD1226A00F03F01914215D147F6F3
:100D9000C071626A0140B1EB821F0ED1A26A00F4F9
:100DA000403108EB5202B1EB024F06D194F82C10FF
:100DB00000F07060B0EB016F03D00120BDE70120AF
:100DC000BBE70020B9E70000401EB0F1807F01D3EF
:100DD000012070474FF0E0214861044AF020107074
:100DE00000208861072008610020704723ED00E0A3
:100DF0007047704790F83C20012A2CD0012280F8DF
:100E00003C20CA680023D1F808C022F4407242EAAC
:100E10000C02D1F804C022F4806242EA0C02D1F83C
:100E200000C022F4006242EA0C02D1F810C022F4A1
:100E3000805242EA0C02D1F814C022F4005242EA75
:100E40000C02C96922F4804211430268516480F89F
:100E50003C30002070470220704730B490F83C20AE
:100E6000012A38D0012480F83C40022280F83D203D
:100E70000268D2F804C093682CF0700C0D6845EA43
:100E80000C0CC2F804C00268A2F1804CBCF5803C96
:100E900014D0B2F1804F11D01CF57C4C0ED0BCF5B3
:100EA000806C0BD0BCF5806C08D0BCF5784C05D0BC
:100EB000BCF5705C02D01CF5943C04D123F0800397
:100EC00049681943916080F83D40002180F83C104A
:100ED00030BC0020704730BC0220704710B504467B
:100EE000002C03D094F83D0010B107E0012010BDA4
:100EF000002084F83C00204600F01EF8022084F810
:100F00003D00211D206800F0C9FF012084F8460043
:100F100084F83E0084F83F0084F8400084F84100E3
:100F200084F8420084F8430084F8440084F84500C3
:100F300084F83D00002010BD08B500680B498842C8
:100F400012D10B48016841F48071016000680022F1
:100F500000F48070009011462D20FFF793FBBDE850
:100F600008402D20FFF780BB08BD00000020004096
:100F700040380240704770B50446206801694FF060
:100F8000000511F0020F17D0C16811F0020F13D045
:100F9000E91E0161012020772068806910F0030FAD
:100FA00003D02046FFF7E6FF05E0204600F022F9D7
:100FB000204600F00DFA25772068016911F0040F32
:100FC00018D0C16811F0040F14D06FF00401016152
:100FD000022020772068806910F4407F03D02046EB
:100FE000FFF7C8FF05E0204600F004F9204600F0B6
:100FF000EFF925772068016911F0080F18D0C16852
:1010000011F0080F14D06FF008010161042020775F
:101010002068C06910F0030F03D02046FFF7AAFF35
:1010200005E0204600F0E6F8204600F0D1F92577EB
:101030002068016911F0100F18D0C16811F0100F6D
:1010400014D06FF010010161082020772068C0697A
:1010500010F4407F03D02046FFF78CFF05E02046C8
:1010600000F0C8F8204600F0B3F925772068016940
:1010700011F0010F09D0C16811F0010F05D06FF018
:1010800001010161204600F047FA2068016911F072
:10109000800F09D0C16811F0800F05D06FF080017A
:1010A00001612046FFF7A4FE2068016911F0400F9E
:1010B00009D0C16811F0400F05D06FF04001016107
:1010C000204600F02AFA2068016911F0200F0BD0A9
:1010D000C16811F0200F07D06FF020010161204698
:1010E000BDE87040FFF785BE70BD0000F0B587B069
:1010F000044614216846FFF79BF83548246800230E
:10110000344947150222012584420FD1086840F076
:101110001000086008680097CDE9012300F0100076
:10112000CDE90450694603932B4825E02B48B4F1E0
:10113000804F13D0DFF8A8C00326644520D10C6887
:1011400044F002040C60096801AC009584E84C008E
:1011500001F00201CDE9042169460DE00C6844F07C
:1011600002040C60096801F00201059108218DE874
:101170000E00CDE903356946FFF7FEF807B0F0BD74
:10118000184884420FD1086840F0010008600868E0
:1011900001AC009284E84C0000F00100CDE904208D
:1011A00069461148E8E711488442E7D1086840F0F1
:1011B000200008600868009700F0200005900920D2
:1011C000CDE90360CDE9012569460948D4E700006F
:1011D000000001403038024000100240000402408C
:1011E00000040040000C00400000024000200040CD
:1011F00000140240704770B504460D46002694F86E
:101200003C0001280FD0012084F83C006AB1042A78
:101210001FD0082A32D00C2A44D00126002084F89E
:101220003C00304670BD022070BD2946206800F0A9
:10123000A1FE2068816941F008018161206881690F
:1012400021F004018161206881692A69114381616B
:10125000E4E72946206800F0C5FE2068816941F472
:10126000006181612068816921F480618161206869
:1012700081692A6941EA02218161CFE72946206814
:1012800000F0ECFE2068C16941F00801C1612068EE
:10129000C16921F00401C1612068C1692A69114353
:1012A000C161BBE72946206800F014FF2068C169CE
:1012B00041F40061C1612068C16921F48061C161AC
:1012C0002068C1692A6941EA0221C161A6E710B517
:1012D0000446002C03D094F83D0010B107E0012033
:1012E00010BD002084F83C00204600F01FF80220CA
:1012F00084F83D00211D206800F0D0FD012084F815
:10130000460084F83E0084F83F0084F8400084F8EA
:10131000410084F8420084F8430084F8440084F8D3
:10132000450084F83D00002010BD000008B50168AC
:101330002348814209D12348016841F0010101603D
:10134000006800F00100009008BD1E48001FB1F1C8
:10135000804F11D01C4A91421DD1016841F0020119
:1013600001600068002200F00200009011461D207C
:10137000FFF788F91D201FE0016841F001010160BD
:101380000068002200F00100009011461C20FFF7C9
:1013900079F91C2010E00D4A9142D5D1016841F045
:1013A000080101600068002200F00800009011466A
:1013B0003220FFF767F93220BDE80840FFF754B943
:1013C000000001404438024000040040000C00408E
:1013D0007047000010B50446002909D004290AD03E
:1013E00008290BD094F8410001280AD0012010BD33
:1013F00094F83E00F8E794F83F00F5E794F84000D1
:10140000F2E7022099B304293FD0082940D084F89C
:1014100041000122206800F09DFD1F4A20681F49FD
:10142000904201D0884203D1436C43F400434364AB
:10143000206890421CD0B0F1804F19D0A0F18042BA
:10144000B2F5806214D0B2F5806211D0B2F580623C
:101450000ED088420CD0B2F59A3109D011F59431F2
:1014600006D0016841F001010160002010BD09E0D3
:10147000816801F007010629F7D0016841F00101F8
:101480000160F2E784F83E00C3E784F83F00C0E75C
:1014900084F84000BDE70000000001400004014066
:1014A00030B504460D4600222946206800F052FD62
:1014B000206841F211118A10A0F18043B3F5803306
:1014C00002D0B3F5806309D1036A0B4206D1036AE7
:1014D000134203D1436C23F4004343642068036A3E
:1014E0000B4206D1016A114203D1016821F00101CA
:1014F000016001203DB1042D08D0082D09D084F8E9
:101500004100002030BD84F83E00FAE784F83F0037
:10151000F7E784F84000F4E770477047704770477A
:10152000F8B5044622681068D168536900F00F0CC2
:10153000BCF1000F0AD110F0200F07D011F0200FDE
:1015400004D02046BDE8F84000F02ABE0025BCF1DA
:10155000000F74D003F0010C01F490765CEA0606EB
:101560006DD010F0010F06D011F4807F03D0226CF3
:1015700042F00102226410F0040F06D013F0010FB4
:1015800003D0226C42F00202226410F0020F06D057
:1015900013F0010F03D0226C42F00402226410F019
:1015A000080F08D001F0200252EA0C0203D0226C8E
:1015B00042F008022264226C002A35D010F0200F7D
:1015C00005D011F0200F02D0204600F0E9FD206880
:1015D0004069C0F38010216C01F00801084329D054
:1015E000204600F0A9FD2068406910F0400F1CD093
:1015F0002068143050E8001F21F0400140E800123C
:10160000002AF5D1A06B60B15C490165A06BFEF7C3
:10161000A0FE002808D0A06B016D01B0BDE8F0402D
:1016200008472046FFF77BFFF8BD2046FFF777FF0E
:10163000F8BD04E02046FFF772FF2564F8BD236B78
:10164000012B7DD110F0100F7AD011F0100F7ED049
:1016500010685068009050694FF0200310F0400F60
:1016600043D0A16B0868406880B20028E6D0A28D04
:101670008242E3D9E085C869B0F5807F2DD020682B
:101680000C3050E8001F21F4807140E80012002A5D
:10169000F5D12068143050E8001F21F0010140E826
:1016A0000012002AF5D12068143050E8001F21F004
:1016B000400140E80012002AF5D184F83E3025634D
:1016C00020680C3050E8001F21F0100140E80012A3
:1016D000002AF5D1A06BFEF7EBFDA08DE18D401A3D
:1016E00081B22046FFF71AFFF8BDA08DE18D401AA8
:1016F00081B2E08D0028F7D00029F5D020680C30A9
:1017000050E8002F22F4907240E8002CBCF1000F4A
:10171000F4D12068143050E8002F22F0010240E894
:10172000002CBCF1000FF4D184F83E302563206812
:101730000C3050E8002F22F0100240E8002300E0B7
:1017400005E0002BF3D12046FFF7E8FEF8BD10F0CE
:10175000800F07D011F0800F04D02046BDE8F8407C
:1017600000F01CBE10F0400FF0D011F0400FEDD093
:101770002046BDE8F84000F006BD00002921000821
:1017800070B50446002C04D094F83D00002510B13B
:1017900006E0012070BD84F83C50204600F022F89D
:1017A000242084F83D002068C16821F40051C16004
:1017B000204600F059FD2068016921F49041016143
:1017C0002068416921F02A0141612068C16841F423
:1017D0000051C1602564202084F83D0084F83E005B
:1017E000002070BDF0B587B0044614216846FEF7AE
:1017F0001FFD2A4F236800222949022403250726BA
:101800002848BB4221D1264B14331F6847F01007EC
:101810001F601B6803F0100305930B6843F001037E
:101820000B60096802AB01F0010105916902CDE985
:10183000001483E864006946FEF79EFD002211460D
:101840002520FEF71FFF252023E0174FBB4222D1A2
:10185000134B10331F6847F400371F601B6803F4F5
:10186000003305930B6843F001030B60096802AB7A
:1018700001F0010105910C21CDE9001483E8640019
:101880006946FEF779FD002201212620FEF7FAFEC7
:101890002620FEF7E9FE07B0F0BD00000010014071
:1018A00030380240000002400044004090F83E30D2
:1018B000202B01D00220704759B152B190F83C3032
:1018C000012B08D0012380F83C300023036300F093
:1018D00047BD012070470220704770472DE9F8434B
:1018E00004460E4615461F4694F83D00202802D0B7
:1018F0000220BDE8F883C6B1BDB194F83C000128D0
:1019000016D0012084F83C004FF00009C4F8409044
:10191000212084F83D00FEF745FE8046A584E5843D
:10192000A068B0F5805F06D007E00120BDE8F8832D
:101930000220BDE8F883206980B13546002684F88E
:101940003C90E08CB8B143460022802120460097AD
:1019500000F053FD20B10320BDE8F8830025EEE739
:10196000A5B12168287848606D1CE08C401EE08499
:10197000E08C0028E7D14346002240212046009712
:1019800000F03BFD48B10320BDE8F88330882168B2
:10199000C0F308004860B61CE7E7202084F83D004B
:1019A0000020BDE8F8837047FEE700002DE9F04312
:1019B00087B014216846FEF73BFC4A4800240168C2
:1019C00041F010010160016801F01001059101680A
:1019D00041F004010160016801F004010591016812
:1019E00041F020010160016801F0200105910168CA
:1019F00041F080010160016801F0800105910168FA
:101A000041F001010160016801F0010105910168E7
:101A100041F002010160016801F0020105910168D5
:101A200041F008010160016801F0080105910168B9
:101A300041F04001016000682B4F00F0400005902C
:101A400001224FF47F413846FEF7A5FDDFF89C8068
:101A500001224FF4FE714046FEF79DFDDFF89090A5
:101A60004FF47C76012231464846FEF794FD04206F
:101A7000CDE9000469461F480294FEF77DFC4FF251
:101A80000470009001250224CDE9015469463846CE
:101A90000394FEF771FCA002CDE90005CDE90254E4
:101AA00069463846FEF768FC7C200090CDE9015479
:101AB000694640460394FEF75FFC4FF4C070CDE9E1
:101AC0000005CDE9025469464046FEF755FC0096F4
:101AD000CDE90154694648460394FEF74DFC07B032
:101AE000BDE8F08330380240000C0240001802408C
:101AF000000402400010024010B588B01C21684666
:101B0000FEF796FB15481449002401602F21C0E917
:101B1000011440F2F311C0E903148461FFF7DEF908
:101B200008B1FEF7C3FB0D48FFF7D1FB08B1FEF784
:101B3000BDFB6020CDE900040294002269460748FD
:101B40000494FFF758FB08B1FEF7B0FB0348FFF71A
:101B5000CDFA08B010BD0000002000407801002040
:101B600010B592B000240F941C2108A81094FEF721
:101B70005FFB20216846FEF75BFB20481E49C0E959
:101B800000144FF6FF71C0E90241046144618461B1
:101B9000FFF79DFB08B1FEF789FB0F940FA91748CB
:101BA0001094FFF75AF908B1FEF780FB6020CDE9E9
:101BB00008040A940B940C940D94002208A90F4871
:101BC0000E94FFF718FB08B1FEF770FB00944FF47A
:101BD0000050CDE9044002940194039469460748FB
:101BE0000794FFF707F908B1FEF760FB0348FFF71A
:101BF0007DFA12B010BD0000000001405800002026
:101C000010B58AB0002407941C2168460894FEF79A
:101C10000FFB16484FF0804101605321C0E90114C9
:101C200044F61F61C0E903148461FFF750FB08B15B
:101C3000FEF73CFB079407A90C480894FFF70DF941
:101C400008B1FEF733FB6020CDE9000402940422C2
:101C5000694606480494FFF7CEFA08B1FEF726FB62
:101C60000248FFF743FA0AB010BD0000A0000020B0
:101C700010B58AB0002407941C2168460894FEF72A
:101C8000D7FA1648144901605321C0E9011440F203
:101C9000E731C0E903148461FFF719FB08B1FEF7CF
:101CA00005FB079407A90D480894FFF7D6F808B17B
:101CB000FEF7FCFA6020CDE9000402940822694690
:101CC00006480494FFF797FA08B1FEF7EFFA0348C5
:101CD000FFF70CFA0AB010BD00040040E800002035
:101CE00010B58AB0002407941C2168460894FEF7BA
:101CF0009FFA1648144901604721C0E9011444F6CF
:101D00001F61C0E903148461FFF7E1FA08B1FEF72F
:101D1000CDFA079407A90D480894FFF79EF808B17B
:101D2000FEF7C4FA6020CDE900040294042269465B
:101D300006480494FFF75FFA08B1FEF7B7FA0348C4
:101D4000FFF7D4F90AB010BD000C004030010020AC
:101D50000C4810B50A4901604FF4E131416000219F
:101D600081600C22C160C0E904128161C161FFF78A
:101D700007FD002803D0BDE81040FEF797BA10BD5C
:101D800000100140C00100200C4810B50A49016054
:101D90004FF4E1314160002181600C22C160C0E953
:101DA00004128161C161FFF7EBFC002803D0BDE89C
:101DB0001040FEF77BBA10BD004400400402002032
:101DC000FEE7FEE770477047FEF7F2BB30B593B011
:101DD00030216846FEF72CFA14210CA8FEF728FAE9
:101DE0001C480025016841F080510160006800F046
:101DF000805011901848016841F4804101600068EA
:101E0000022400F480401190012000900004019011
:101E10008001CDE9064008AA0420482182E8130089
:101E20000B906846FEF78EFD08B172B6FEE70CA96E
:101E30000F2081E831004FF48050CDE90F050221D9
:101E40000CA8FEF765FC002801D072B6FEE713B0BF
:101E500030BD000040380240007000400248016878
:101E600041F470010160704788ED00E00148FFF720
:101E700082B80000A00000200148FFF77CB80000F5
:101E8000E80000200148FFF776B80000300100208C
:101E90000148FFF770B8000078010020F0B4026834
:101EA000274B284C284D294EDFF8A4C098420AD071
:101EB000B0F1804F07D0A04205D0A84203D0B04275
:101EC00001D0604503D122F070024F683A43984236
:101ED0001ED0B0F1804F1BD0A04219D0A84217D01D
:101EE000B04215D0604513D0A0F18044B4F5A034C1
:101EF0000ED0B4F580640BD0B4F5806408D014F52E
:101F0000983405D0B4F5806402D0B4F5806403D170
:101F100022F44072CC6822434C6922F080022243B2
:101F200002608A68C2620A688262984201D0604593
:101F300001D10969016301214161F0BC70470000D2
:101F4000000001400004004000080040000C004078
:101F50000004014001F01F0101238B40D0F820C094
:101F60002CEA03030362036A02FA01F119430162D6
:101F70007047000070B4026A22F001020262036A34
:101F80004268D0F818C02CF0700C2CF0030C0C68D0
:101F900044EA0C0C23F002038C6823430F4C104DD1
:101FA000A04201D0A84205D123F00803CE683343F4
:101FB00023F00403A04201D0A84207D122F480728A
:101FC00022F400724C6922438C6922434260C0F8BB
:101FD00018C049684163036270BC7047000001404B
:101FE0000004014070B4026A22F010020262036A27
:101FF0004268D0F818C02CF4E04C2CF4407C0C68FB
:102000004CEA042C23F020038C6843EA0413114C9F
:10201000114DA04201D0A84206D123F08003CE6822
:1020200043EA061323F04003A04201D0A84209D19D
:1020300022F4806222F400624C6942EA84028C69D4
:1020400042EA84024260C0F818C0496881630362B2
:1020500070BC7047000001400004014070B4026A87
:1020600022F480720262036A4268D0F81CC02CF02D
:10207000700C2CF0030C0C6844EA0C0C23F4007375
:102080008C6843EA0423114C114DA04201D0A842B0
:1020900006D123F40063CE6843EA062323F4806369
:1020A000A04201D0A84209D122F4805222F4005269
:1020B0004C6942EA04128C6942EA04124260C0F898
:1020C0001CC04968C163036270BC704700000140D6
:1020D0000004014010B4026A22F480520262D0F877
:1020E00020C04268C36923F4E04323F440730C68C2
:1020F00043EA04232CF4005C8C684CEA043CA0F115
:102100008044B4F5803402D0B4F5806404D122F464
:1021100080424C6942EA84124260C36149680164AA
:10212000C0F820C010BC704710B5806B0021C1857D
:10213000C184FFF7F4F910BD01680C3151E8002F9C
:1021400022F4907241E80023002BF5D1016814318C
:1021500051E8002F22F0010241E80023002BF5D1C5
:10216000016B012909D101680C3151E8002F22F0DF
:10217000100241E80023002BF5D1202180F83E1009
:1021800000210163704710B50168CA6822F040025F
:10219000CA60202180F83D10FFF705FC002010BD2B
:1021A00008B590F83E10222901D0022008BD8268AF
:1021B000B2F5805F01D1016929B1816AB2F5805F12
:1021C0001DD052B10BE0816A02685268C2F3080266
:1021D0000A80816A891C816209E002697AB1026819
:1021E000526802F07F020A70816A491C8162C18DC7
:1021F000491E0904090CC18505D0002008BD0268EC
:1022000052680A70F0E70168CA6822F02002CA60CA
:102210000168CA6822F48072CA6001684A6922F0C3
:1022200001024A61202180F83E10016B012903D090
:10223000FFF753FB002008BD0021016301680C314A
:1022400051E8002F22F0100241E80023002BF5D1C5
:1022500001680A6812F0100F02D00A6849680091FC
:10226000818DFFF75BF9E5E72DE9F0410446206831
:102270000169E26821F44051114301612169A068BC
:10228000E26908436169114301432068C26822F48E
:10229000037222F414421143C16020684169A269AB
:1022A00021F44071114341612068A0F18041B1F5F2
:1022B00088312CD0B1F5806129D0FEF7EDFA844643
:1022C000E16900201927254D3226B1F5004F22D0B3
:1022D0006068830F8200ACFB0701FDF771FF0146C8
:1022E000A5FB002040097A42424301EB820106EB44
:1022F0000111A5FB0121490901F0F00202EB0010D8
:1023000001F00F01084421688860BDE8F081FEF704
:10231000D3FA8446D4E761684A1840EB0003ACFB6B
:102320000701FDF74DFF0346A5FB001041091846C4
:102330000A016FF01803594300EB810006EBC0005F
:10234000A5FB0010400900F0F80102EB410100F08C
:102350000700084421688860BDE8F0811F85EB51C3
:1023600081628285C28500210164222280F83E209C
:1023700080F83C100169002904D00168CA6842F461
:102380008072CA6001684A6942F001024A610068CD
:10239000C16841F02001C1600020704790F83D10F5
:1023A000212901D0022070478168B1F5805F01D1F9
:1023B000016961B1016A4A1C0262026809785160D0
:1023C000C18C491E0904090CC1840AD013E0016ABA
:1023D00002680988C1F308015160016A891C016221
:1023E000EEE70168CA6822F08002CA600068C1682E
:1023F00041F04001C160002070472DE9F0410446E2
:10240000069D884616461F462068006838EA000088
:102410002AD00020B04231D1B5F1FF3F26D025B1FE
:10242000FEF7C0F8C01BA84220D920680C3050E845
:10243000001F21F4D07140E80012002AF5D1206875
:10244000143050E8001F21F0010140E80012002A7A
:10245000F5D1202084F83D0084F83E00002084F867
:102460003C000320BDE8F0810120D3E7206800682C
:1024700038EA000005D00020B042CDD00020BDE8F1
:10248000F0810120F8E700000148FFF749B800009B
:10249000C00100200148FFF743B8000004020020FB
:1024A000FEE702E008C8121F08C1002AFAD17047EF
:1024B0007047002001E001C1121F002AFBD17047C4
:1024C000FEF77EF8FFF782FCFFF770FAFFF740FC9B
:1024D000FFF75AFCFFF7CCFBFFF70EFBFFF790FB73
:1024E000FFF73EFBFFF7FCFB0421D448FEF772FF29
:1024F0000021D348FEF76EFF0421D248FEF76AFFA1
:10250000DFF84483DFF84493D14FD24DDFF848A37E
:10251000CA4EDFF830B308F123042322CA49CF485A
:10252000FFF7C4F998F80110217098F80310617052
:1025300098F80510A17098F80710E17098F8091044
:10254000217198F80B10617198F80D10A171404637
:1025500098F80F10E171417C217298F81300BA4984
:1025600060724FF6FF7302222331BD48FFF7B6F9C0
:102570002178012903D00020072918D000E001208C
:10258000002108436178012913D000221043072954
:1025900011D000210843E17801290ED00022104318
:1025A00007290CD0002108430BD001220AE00121A9
:1025B000E7E70122EAE70121ECE70122EFE7012149
:1025C000F1E7002204214846FDF7E5FF04213846E3
:1025D000FDF7DAFF04213846FDF7D6FF20780528FD
:1025E00005D900224FF480514846FDF7D4FF2078EA
:1025F000C01E032809D2012211034846FDF7CBFF74
:10260000012251034846FDF7C6FF2078032805D272
:1026100000224FF400514846FDF7BDFF60780528C1
:1026200005D900224FF480414846FDF7B4FF607899
:10263000C01E03280AD2012291034846FDF7ABFFD2
:1026400000224FF400414846FDF7A5FF60780328BB
:1026500004D20122D1034846FDF79DFFE07805280A
:1026600004D9002280217F48FDF795FFE078C01E45
:10267000032809D2012280217A48FDF78CFF01222C
:1026800011027848FDF787FFE078032805D2002281
:102690004FF480717348FDF77EFF2079022809D23C
:1026A000002240212846FDF776FF0122802128469E
:1026B000FDF771FF2079801E042809D201224021F4
:1026C0002846FDF768FF012280212846FDF763FFB9
:1026D0002079052809D9012240212846FDF75BFF12
:1026E000002280212846FDF756FF6079022809D292
:1026F000002210212846FDF74EFF01222021284606
:10270000FDF749FF04213846FDF73EFF01281AD1A5
:102710006079801E042809D2012210212846FDF785
:102720003AFF012220212846FDF735FF6079052870
:1027300009D9012210212846FDF72DFF0022202172
:102740002846FDF728FF04213846FDF71DFFC8B9CC
:102750006079032809D9012210212846FDF71BFFC3
:10276000012220212846FDF716FF6079022809D2B0
:10277000002210212846FDF70EFF012220212846C5
:10278000FDF709FF607A10B1072802D005E0C821E3
:1027900000E00021DAF80000C163A07808B1012848
:1027A00003D132684FF47A719163022801D0032873
:1027B00003D1326840F2E2419163042801D0052838
:1027C00003D1326840F25A519163062802D007289B
:1027D00003D006E04FF4C86001E040F2A460316825
:1027E0008863E07910B1072803D007E04FF4FA714D
:1027F00001E04FF4E161DBF800008163207A40B929
:10280000012204211748FDF7C6FE08211248FEF7F1
:10281000E1FD207A042803D108210F48FEF740FE8D
:10282000207A07287FF479AE002204210D48FDF7B5
:10283000B2FE08210848FEF7CDFD6EE6300100200B
:1028400078010020A000002010000020000C0240B1
:102850000010024000040240E800002004020020B2
:10286000C00100200018024000000000000000002D
:102870000102030406070809000000000102030426
:10288000A02800080000002010000000A22400087A
:10289000B02800081000002038060000B22400080C
:1028A0000100000010000000000000000024F400FF
:040000050800018965
:00000001FF
